:04000000803114280F
:100008007E1480314101161E0A280B2812280C1E66
:100018000E280F2812288031A12080317E10090077
:10002800803116287E1040018031602840019801F7
:1000380099019A019B019C01FF309200FE309300C8
:10004800FF309400FF3095000F309600FF307D019F
:100058008C00FE309600FF30A000FF30AA00073069
:10006800B4008D019701A101AB01B5018E01980182
:10007800A201AC01B601FF308F00FF309900FF30BC
:10008800A300FF30AD000730B700FF309000FF300D
:100098009A00FF30A400FF30AE000F30B800910185
:1000A800920193019B019C019D01A501A601A70155
:1000B800B901BA01BB0108008031882080310310E2
:1000C8004001191C031403186A286D2840011914EB
:1000D8006F28400119100230F3004530F200AA30B1
:1000E800890B7428F20B7428F30B74286328803169
:1000F800142841010C100B140030F0000030F100FE
:1001080080319C20803108008031922080318031FC
:100118001A20803180317D20803108006030440110
:100128008E008F01910193019001920194010800C2
:0C0138007108F5007008F40008000800D1
:020000040001F9
:04000E00ED3FE73F9C
:04001400FF3FFF3F6C
:00000001FF
