:1000000080313128CA3465347E1480314101161E96
:100010000A280B2813280C1E0E280F281328A83195
:10002000002080312F280B1F162817282F289A1CF4
:100030001A281B282328901C1E281F282328BB3180
:10004000772380312F281A1C262827282F28101CB8
:100050002A282B282F28BB317B2380312F287E1084
:10006000090080313328803102208031FB0080314B
:1000700003208031FC004501883100208031EF00F1
:1000800047308400BC308500513086000330870043
:100090000D30BB31C6238031F601F701F801F901BB
:1000A000FA0162308400023085000E30BB31C0237B
:1000B0008031E5308400023085000A30BB31C02336
:1000C000803120308400033085003130BB31C023C3
:1000D0008031A0308400033085005030BB31C02314
:1000E000803120308400043085002E30BB31C023A5
:1000F0008031A0308400043085003C30BB31C02307
:10010000803120308400053085003C30BB31C02375
:1001100080317E104001A031CA283F304201CF001B
:100120008030CE000030CD000030CC00C801C901C5
:1001300047084001A300420146084001A2004201D5
:1001400045084001A100420144084001A0000030E0
:10015000A7000030A6000030A5000030A400B33195
:10016000902380310318B528B6281F2AC4284201DD
:100170003608CF003508CE003408CD003308CC0057
:100180000130C8070030C93D41304001B100203086
:10019000B0000030AF000030AE0042014F08400117
:1001A000B50042014E084001B40042014D08400133
:1001B000B30042014C084001B2009B31132380314F
:1001C000400131084201B600400130084201B5004B
:1001D00040012F084201B40040012E084201B30043
:1001E000330844024101C20042013408453B410149
:1001F000C30042013508463B4101C40042013608B4
:10020000473B4101C50045084001A30041014408A6
:100210004001A200410143084001A1004101420800
:100220004001A0009031002080314001A31B26290D
:100230002308031D27292208031D27292108031D40
:10024000272902302002031C26292729B72842012A
:1002500036084001CB00420135084001CA00420186
:1002600034084001C900420133084001C80042017E
:1002700047084001CF00420146084001CE0042013C
:1002800045084001CD00420144084001CC00AB319B
:1002900025238031031C4D294E29B72842014C08E3
:1002A00044024101C20042014D08453B4101C300E7
:1002B00042014E08463B4101C40042014F08473B02
:1002C0004101C50045084001A30041014408400127
:1002D000A200410143084001A10041014208400140
:1002E000A0009031002080314001A31B8629230803
:1002F000031D85292208031D85292108031D852941
:1003000002302002031885298629F82942014F0866
:10031000C7004E08C6004D08C5004C08C4001F2A7F
:1003200041304001DF002030DE000030DD000030D1
:10033000DC0042014F084001E30042014E08400149
:10034000E20042014D084001E10042014C08400139
:10035000E000A331F423803140015F084201CF0067
:1003600040015E084201CE0040015D084201CD001F
:1003700040015C084201CC00FF30C807FF30C93D96
:100380004C0844024101C20042014D08453B410175
:10039000C30042014E08463B4101C40042014F08E0
:1003A000473B4101C50045084001A3004101440805
:1003B0004001A200410143084001A100410142085F
:1003C0004001A0009031002080314001A31BF7299B
:1003D0002308031DF6292208031DF6292108031D01
:1003E000F629023020020318F629F729F829862970
:1003F000420147084001CB00420146084001CA00C3
:10040000420145084001C900420144084001C800BA
:1004100042014F084001CF0042014E084001CE008A
:1004200042014D084001CD0042014C084001CC0082
:10043000AB3125238031031C1E2A1F2A902941013C
:1004400041084201B2003208B10067303206031D94
:100450002A2A2B2A4F2A76087704031D302A312AAC
:10046000352A0130F6000030F7007708803A410164
:10047000C20080304202031D3F2A01307602031879
:10048000422A432A492A06304201AF000030B00018
:10049000542A77084201B0007608AF00542AF71BAF
:1004A000522A532A432A492A67303206031D592A01
:1004B0005A2A8C2A4908803A4101C2007F30420200
:1004C000031D652AFC3042014802031C682A692A80
:1004D000892A42012F08FF3E4101C200FF3042013C
:1004E000303D4101C3004308803AC400420149083D
:1004F000803A41014402031D812A4201480841011A
:100500004202031C842A852A892A66304201B100EE
:100510008C2A65304201B1003008AB002F08AA00D8
:1005200067303206031D952A962AA02A66303106C6
:10053000031D9B2A9C2AA42AC91F9F2AA02AA42AF9
:100540000130AA070030AB3D66303106031DA92AF1
:10055000AA2AC22AC91FAD2AAE2AB82A3F30CF0024
:100560008030CE000030CD000030CC00C801C90181
:10057000673032060319BD2ABE2AC22A4808AA07D4
:100580004908AB3DC201C3014708BC004608BB0097
:100590004508BA004408B9004F08B6004E08B50037
:1005A0004D08B4004C08B300B32B42014F08400182
:1005B000DF0042014E084001DE0042014D084001CB
:1005C000DD0042014C084001DC0042013C084001D2
:1005D000E30042013B084001E20042013A084001C9
:1005E000E100420139084001E000A331F4238031E9
:1005F00040015F08EC005E08EB005D08EA005C0863
:10060000E900AF310627803140016C084201C0008B
:1006100040016B084201BF0040016A084201BE0070
:10062000400169084201BD0040084001DF0042016D
:100630003F084001DE0042013E084001DD0042016A
:100640003D084001DC00A9314221803140015D08B4
:100650004201AE0040015C084201AD004F0840017C
:10066000B50042014E084001B40042014D0840016E
:10067000B30042014C084001B20042014008400171
:10068000B10042013F084001B00042013E08400174
:10069000AF0042013D084001AE009B311323803181
:1006A000400131084101B000400130084101AF0074
:1006B00040012F084101AE0040012E084101AD006C
:1006C00042013C084101B40042013B084101B30032
:1006D00042013A084101B200420139084101B1002A
:1006E000B031D0208031410130084201BC004101CD
:1006F0002F084201BB0041012E084201BA0041010E
:100700002D084201B90041304001DF002030DE00F9
:100710000030DD000030DC0042014F084001E30002
:1007200042014E084001E20042014D084001E10053
:1007300042014C084001E000A331F4238031400124
:100740005F084201CF0040015E084201CE00400137
:100750005D084201CD0040015C084201CC0001303F
:10076000C2070030C33D4308803A4101C200420144
:100770002B08803A41014202031DC12B42012A0885
:100780004202031CC42BC52BD52A40304001B100C6
:10079000A030B0000030AF000030AE0042014F0882
:1007A0004001B50042014E084001B40042014D082D
:1007B0004001B30042014C084001B2009B311323B9
:1007C0008031400131084201C0004001300842013F
:1007D000BF0040012F084201BE0040012E08420127
:1007E000BD003C084001CB0042013B084001CA006B
:1007F00042013A084001C900420139084001C800DD
:10080000420140084001CF0042013F084001CE00B4
:1008100042013E084001CD0042013D084001CC00AC
:10082000AB31252380310318162C172C212C0030D6
:100830004201C0000030BF000030BE000030BD00EB
:10084000552C42013C084001A30042013B084001F5
:10085000A20042013A084001A100420139084001CA
:10086000A000420140084001A70042013F084001AA
:10087000A60042013E084001A50042013D0840019A
:10088000A400B33190238031031C472C482C552CF5
:1008900042012D184C2C4D2C552C0030C00000303E
:1008A000BF000030BE000030BD00420140084001E2
:1008B000CB0042013F084001CA0042013E0840010E
:1008C000C90042013D084001C800420147084001FB
:1008D000CF00420146084001CE00420145084001D8
:1008E000CD00420144084001CC00A531F8258031FB
:1008F00040014B084201BC0040014A084201BB00D4
:10090000400149084201BA00400148084201B900CB
:100910003C084001CB0042013B084001CA004201B3
:100920003A084001C900420139084001C80041307D
:10093000B1002030B0000030AF000030AE00420106
:1009400036084001B500420135084001B4004201BB
:1009500034084001B300420133084001B2009B312A
:100960001323803140013108CF003008CE002F081A
:10097000CD002E08CC00AB3125238031031CC12CC7
:10098000C22CFD2C01304201C8070030C93D413066
:100990004001B1002030B0000030AF000030AE00A8
:1009A000420136084001B500420135084001B4005B
:1009B000420134084001B300420133084001B20053
:1009C0009B3113238031400131084201B6004001C0
:1009D00030084201B50040012F084201B400400137
:1009E0002E084201B30066303106031DF82CF92CA5
:1009F000FD2C0130AA070030AB3D42013608CF0084
:100A00003508CE003408CD003308CC0065303106FF
:100A100003190B2D0C2D112D4908A9004808A80019
:100A2000132DA801A901A401A601A701C201C301B8
:100A30007D2E42014F084001DF0042014E08400177
:100A4000DE0042014D084001DD0042014C0840013A
:100A5000DC0042013C084001E30042013B08400148
:100A6000E20042013A084001E10042013908400138
:100A7000E000A331F423803140015F08EC005E0800
:100A8000EB005D08EA005C08E900AF310627803121
:100A900040016C084201C00040016B084201BF00E8
:100AA00040016A084201BE00400169084201BD00E0
:100AB00040084001DF0042013F084001DE004201E2
:100AC0003E084001DD0042013D084001DC00A93143
:100AD0004221803140015D08803A4101C2008030EE
:100AE0004202031D762D0A3040015C020318792D65
:100AF0007A2D962D420140084001DF0042013F0857
:100B00004001DE0042013E084001DD0042013D0897
:100B10004001DC00A9314221803140015D084201E1
:100B2000AE0040015C084201AD009B2D093042013E
:100B3000AD000030AE002D082E04031DA02DA12D08
:100B4000B02D67303206031DA62DA72DB02DA91F8D
:100B5000AA2DAB2DB02D0130A6070030A73DF42DF6
:100B60002408031DB42DB52DDE2DA91FB82DB92DD8
:100B7000DE2D4A08A03E8600033087002E3081001B
:100B80000130CA070030CB3DFF30B707FF30B83D1A
:100B9000A401A40ADE2D4A08A03E86000330870087
:100BA000303081000130CA070030CB3DFF30B7073D
:100BB000FF30B83DFF30A607FF30A73D26082704C9
:100BC000031DE32DE42DCB2D4A08A03E8600033003
:100BD00087002D08303E81000130CA070030CB3D30
:100BE000FF30B707FF30B83D4F084001B500420164
:100BF0004E084001B40042014D084001B3004201DB
:100C00004C084001B200420140084001B1004201DD
:100C10003F084001B00042013E084001AF004201E0
:100C20003D084001AE009B31132380314001310863
:100C30004101B000400130084101AF0040012F08E0
:100C40004101AE0040012E084101AD0042013C08C7
:100C50004101B40042013B084101B30042013A089E
:100C60004101B200420139084101B100B031D02048
:100C70008031410130084201BC0041012F0842018E
:100C8000BB0041012E084201BA0041012D0842017A
:100C9000B90041304001DF002030DE000030DD00CF
:100CA0000030DC0042014F084001E30042014E08E1
:100CB0004001E20042014D084001E10042014C08C0
:100CC0004001E000A331F423803140015F0842017C
:100CD000CF0040015E084201CE0040015D084201A4
:100CE000CD0040015C084201CC00FF30A807FF3076
:100CF000A93D0130C2070030C33D4308803A41019D
:100D0000C20042012B08803A41014202031D8B2E92
:100D100042012A08420203188E2E8F2E9F2E420176
:100D20004B08803A4101C20080304202031D9B2ED5
:100D30004B3042014A02031C9E2E9F2E192D4F302C
:100D40004201C2000030C3004208A03E86000330CA
:100D50008700810165303106031DAF2EB02E402F74
:100D6000A501C91FB42EB52EBC2EA501A50AC80920
:100D7000C909C80A0319C90A0230AF000030B0001F
:100D8000FE2EFF304201C207FF30C33D4208A03EA5
:100D90008600033087000A304001A0000030A10027
:100DA000420149084001A300420148084001A20055
:100DB000B4313124803140012008303E81000A30B6
:100DC000A0000030A100420149084001A3004201F7
:100DD00048084001A200B731A02780314001210816
:100DE0004201C900400120084201C800FF30AF079E
:100DF000FF30B03DFF30B707FF30B83D4808490429
:100E0000031D032F042FC12E3008803A4101C20078
:100E100080304202031D0F2F013042012F020318C0
:100E2000122F132FC12EFF304201C207FF30C33DE6
:100E30002508031D1C2F1D2F222F2B30A200003050
:100E4000A300262F2D30A2000030A3004208A03EB0
:100E500086000330870022088100FF30B707FF308B
:100E6000B83DFF30C207FF30C33D4208A03E8600B8
:100E70000330870065308100FF30B707FF30B83D91
:100E8000A0304001A00042014B084001A2004201F5
:100E90004A084001A100A0304101C20042014A08B5
:100EA0004101420242014207BE319C26803142018B
:100EB0004A084202CA004B08433BCB004108031DCD
:100EC000622F642F0130652F00304101C200C30141
:100ED00042084201C200410143084201C3004108E7
:100EE0000319732F742F7F2FFF30CA07FF30CB3DBC
:100EF0004A08A03E8600033087004108810042086E
:100F0000B7024308B83B4A08A03E4001AF00420187
:100F100038084001B100420137084001B0004201E9
:100F20002C08B33105238031400130084101BE0057
:100F300040012F084101BD0008004101D9004201D4
:100F40006508BF31732787314101DA005A08031D54
:100F5000AA2FAB2FFA2F42015F0860040319B12FAB
:100F6000B22FFA2F650A86000230870001030319A9
:100F7000BA2FBB2FBF2F410159088038D90041013A
:100F800059084201D7006008D9005F08D8006408FA
:100F9000DD006308DC006208DB006108DA00650838
:100FA0008600023087000230423FDE006508043EC2
:100FB000860002308700413F8A00403F0A008731A7
:100FC0004001EF0042016508033E860002308700C1
:100FD00040016F08810042016508033E860002302F
:100FE000870001080319F52FF62FFD2FFE30410170
:100FF000DA00FD2F4101DA01DA0341015A08080045
:101000006434803042015802003003195702031C37
:101010000A280B2816284B304601CB000030CC00A4
:10102000FF304201D500FF30D60099285B304101E6
:10103000DE00420156084101E0004201550841012D
:10104000DF00003042015802023003195702031C2E
:101050002A282B2837285708FF3E4101E800FF3097
:101060004201583D4101E900E101E201402801301F
:101070004101E8000030E9000130E1000030E20009
:1010800042015A08D3005908D200DE30D400DF30C4
:10109000B0319D208831420153084101DD004201F9
:1010A00052084101DC00420157085804031959282D
:1010B0005A2891284101DD1B5E285F2891284201B2
:1010C0005708FF3E4101D700FF304201583D410122
:1010D000D8005D08803AD9005808803A5902031DAB
:1010E000732857085C02031C76287728822842015F
:1010F0005708FF3E4101DA00FF304201583D4101EF
:10110000DB00872841015D08DB005C08DA005A0833
:1011100042015507860041015B084201563D8700A8
:10112000810141015D084201D60041015C08420194
:10113000D50008004001B500350886000130870061
:101140000108A100A201A301A4010C30A135A20D48
:10115000A30DA40D890BA6282408B4002308B3000E
:101160002208B2002108B100350A8600013087004C
:101170000108A100A201A301A4010430A135A20D20
:10118000A30DA40D890BBE282408B0002308AF00CE
:101190002208AE002108AD003508023E860001306D
:1011A00087000108A1000430A136890BD42821084A
:1011B000A200A301A401A5012508AC002408AB00EE
:1011C0002308AA002208A9002908A1002A08A200D1
:1011D0002B08A3002C08A40031082D04A500320818
:1011E0002E04A60033082F04A70034083004A800FA
:1011F0002508A1042608A2042708A3042808A4049B
:1012000020088600013087002108C03F2208C13F26
:101210002308C23F2408C33F3508033E860001303F
:1012200087000108A100A201A301A4010C30A1358F
:10123000A20DA30DA40D890B17292408B4002308BF
:10124000B3002208B2002108B1003508043E860030
:10125000013087000108A100A201A301A40104300C
:10126000A135A20DA30DA40D890B30292408B000CF
:101270002308AF002208AE002108AD003508053E66
:101280008600013087000108A1000430A136890BD7
:1012900046292108A200A301A401A5012508AC004C
:1012A0002408AB002308AA002208A9002908A100ED
:1012B0002A08A2002B08A3002C08A40031082D0442
:1012C000A50032082E04A60033082F04A700340816
:1012D0003004A8002508A1042608A2042708A304B6
:1012E0002808A4042008043E860001308700210855
:1012F000C03F2208C13F2308C23F2408C33F35082E
:10130000063E8600013087000108A100A201A3016A
:10131000A4010830A135A20DA30DA40D890B8A29C3
:101320002408B4002308B3002208B2002108B10049
:101330003508073E8600013087000108A100A201A0
:10134000A301A4012408B0002308AF002208AE00C6
:101350002108AD0031082D04A10032082E04A2009E
:1013600033082F04A30034083004A4002008083EEA
:101370008600013087002108C03F2208C13F2308B2
:10138000C23F2408C33F08004101C9004630D100D4
:10139000EA30D0006030CF000030CE004730CD00C2
:1013A000D630CC00D830CB000030CA00C730400166
:1013B000CB007A30CA000030C9000030C80040308D
:1013C000DF000030DE000030DD000030DC004101D5
:1013D0003508213E860002308700403F4001A000D2
:1013E000413FA100423FA200433FA3000130A03192
:1013F0001F20893140012308E3002208E200210870
:10140000E1002008E000A331F423893140015F08A6
:10141000CF005E08CE005D08CD005C08CC00A53191
:10142000F825893140014B084101E10040014A089B
:101430004101E000400149084101DF004001480846
:101440004101DE0061084001B10041016008400136
:10145000B00041015F084001AF0041015E0840015A
:10146000AE00410161084001B50041016008400142
:10147000B40041015F084001B30041015E08400132
:10148000B2009B3113238931400131084101D90059
:10149000400130084101D80040012F084101D70028
:1014A00040012E084101D60047304001DF000030E6
:1014B000DE000030DD000030DC0041013508103E68
:1014C000860002308700403F4001E900413FEA00CA
:1014D0006908A0006A08A100890D893B8909A2005A
:1014E000A3000130A0311F20893140012308B10041
:1014F0002208B0002108AF002008AE0041015908C1
:101500004001B500410158084001B40041015708AD
:101510004001B300410156084001B2009B31132342
:10152000893140013108E3003008E2002F08E10072
:101530002E08E000A331F423893140015F08410106
:10154000D50040015E084101D40040015D08410121
:10155000D30040015C084101D20061084001B100A4
:10156000410160084001B00041015F084001AF0047
:1015700041015E084001AE00410135080E3E860083
:1015800002308700403F4001E900413FEA0069081E
:10159000A0006A08A100890D893B8909A200A30067
:1015A0000130A0311F20893140012308B5002208F5
:1015B000B4002108B3002008B2009B311323893105
:1015C000400131084101D900400130084101D800F3
:1015D00040012F084101D70040012E084101D600EB
:1015E00055084001CB00410154084001CA004101A7
:1015F00053084001C900410152084001C800403071
:10160000B1000030B0000030AF000030AE0041014A
:1016100059084001B500410158084001B40041019A
:1016200057084001B300410156084001B2009B3108
:101630001323893140013108CF003008CE002F0834
:10164000CD002E08CC00A531F825893140014B088A
:101650004101D50040014A084101D4004001490838
:101660004101D300400148084101D2004730400108
:10167000B1008030B0000030AF000030AE0041015A
:1016800035080C3E860002308700403F4001E900EB
:10169000413FEA006908A0006A08A100890D893B62
:1016A0008909A200A3000130A0311F208931400127
:1016B0002308B5002208B4002108B3002008B200B6
:1016C0009B311323893140013108CB003008CA0017
:1016D0002F08C9002E08C8004030DF008030DE002F
:1016E0000030DD000030DC00410155084001E3001E
:1016F000410154084001E200410153084001E1006A
:10170000410152084001E000A331F4238931400136
:101710005F08CF005E08CE005D08CD005C08CC00FD
:10172000A531F825893140014B084101D500400120
:101730004A084101D400400149084101D300400159
:1017400048084101D20061084001B1004101600830
:101750004001B00041015F084001AF0041015E0857
:101760004001AE00410135080A3E86000230870084
:10177000403F4001E900413FEA006908A0006A08D3
:10178000A100890D893B8909A200A3000130A03185
:101790001F20893140012308B5002208B400210828
:1017A000B3002008B2009B31132389314001310876
:1017B0004101D900400130084101D80040012F0803
:1017C0004101D70040012E084101D60049304001B7
:1017D000DF000030DE000030DD000030DC004101C1
:1017E00061084001B100410160084001B0004101C1
:1017F0005F084001AF0041015E084001AE004101B9
:1018000059084001B500410158084001B4004101A8
:1018100057084001B300410156084001B2009B3116
:101820001323893140013108E3003008E2002F081A
:10183000E1002E08E000A331F423893140015F0864
:101840004101BC0040015E084101BB0040015D0850
:101850004101BA0040015C084101B9004930400132
:10186000DF000030DE000030DD000030DC00410130
:101870003C084001CB0041013B084001CA00410146
:101880003A084001C900410139084001C80041013E
:1018900061084001B100410160084001B000410110
:1018A0005F084001AF0041015E084001AE00410108
:1018B0003508083E860002308700403F4001E900BD
:1018C000413FEA006908A0006A08A100890D893B30
:1018D0008909A200A3000130A0311F2089314001F5
:1018E0002308B5002208B4002108B3002008B20084
:1018F0009B311323893140013108CF003008CE00DD
:101900002F08CD002E08CC00A531F82589314001E3
:101910004B08E3004A08E2004908E1004808E000FB
:10192000A331F423893140015F084101E100400106
:101930005E084101E00040015D084101DF00400117
:101940005C084101DE003508063E86000230870053
:10195000403F4001E900413FEA006908A0006A08F1
:10196000A100A201A3010030A0311F208931400154
:101970002308B1002208B0002108AF002008AE0003
:101980003F30CB008030CA000030C9000030C800B2
:101990004730DF000030DE000030DD000030DC00CA
:1019A000410161084001E300410160084001E2009B
:1019B00041015F084001E10041015E084001E00093
:1019C000A331F423893140015F08CF005E08CE00C7
:1019D0005D08CD005C08CC00A531F82589314001B7
:1019E0004B08B5004A08B4004908B3004808B200E3
:1019F0009B3113238931400131084101E10040014D
:101A000030084101E00040012F084101DF004001A2
:101A10002E084101DE0000304001CB000030CA003A
:101A20000030C9000030C800410161084001CF000A
:101A3000410160084001CE0041015F084001CD0036
:101A400041015E084001CC00AB31252389310318E8
:101A50002A2D2B2DBC2F410149088600013087001B
:101A6000403F4001A000413FA100423FA200433F50
:101A7000A3000030A0311F2089314001230841011B
:101A8000B000400122084101AF004001210841019E
:101A9000AE00400120084101AD004930B400803063
:101AA000B3000030B2000030B100B031D020893135
:101AB00041013008DD002F08DC002E08DB002D0876
:101AC000DA0045304001B100C330B0005030AF0003
:101AD0000030AE004530DF008030DE000030DD0039
:101AE0000030DC00410155084001E3004101540889
:101AF0004001E200410153084001E1004101520868
:101B00004001E000A331F423893140015F08410125
:101B1000B00040015E084101AF0040015D08410195
:101B2000AE0040015C084101AD005D08B4005C08F6
:101B3000B3005B08B2005A08B100B031D02089313F
:101B4000410130084001B50041012F084001B400B7
:101B500041012E084001B30041012D084001B200AF
:101B60009B3113238931400131084101C0004001FC
:101B700030084101BF0040012F084101BE00400173
:101B80002E084101BD0061084001DF0041016008ED
:101B90004001DE0041015F084001DD0041015E08B7
:101BA0004001DC00410140084001E30041013F08E1
:101BB0004001E20041013E084001E10041013D08D1
:101BC0004001E000A331F423893140015F08410165
:101BD000DD0040015E084101DC0040015D0841017B
:101BE000DB0040015C084101DA005D084001B10002
:101BF00041015C084001B00041015B084001AF00B9
:101C000041015A084001AE0041013508163E8600E8
:101C100002308700403F4001E900413FEA00690887
:101C2000A0006A08A100890D893B8909A200A300D0
:101C30000130A0311F20893140012308B50022085E
:101C4000B4002108B3002008B2009B31132389316E
:101C5000400131084101D900400130084101D8005C
:101C600040012F084101D70040012E084101D60054
:101C70004F304001DF000030DE000030DD0000307A
:101C8000DC0041015D084001B10041015C084001F8
:101C9000B00041015B084001AF0041015A0840011A
:101CA000AE00410159084001B5004101580840010A
:101CB000B400410157084001B300410156084001FA
:101CC000B2009B311323893140013108E300300811
:101CD000E2002F08E1002E08E000A331F42389314F
:101CE00040015F084101E10040015E084101E00060
:101CF00040015D084101DF0040015C084101DE0058
:101D000047304001DF000030DE000030DD000030F1
:101D1000DC0041015D084001B10041015C08400167
:101D2000B00041015B084001AF0041015A08400189
:101D3000AE0041013508143E860002308700403F66
:101D40004001E900413FEA006908A0006A08A100DB
:101D5000890D893B8909A200A3000130A0311F2011
:101D6000893140012308B5002208B4002108B300DE
:101D70002008B2009B311323893140013108E30070
:101D80003008E2002F08E1002E08E000A331F42320
:101D9000893140015F084101D50040015E084101E1
:101DA000D40040015D084101D30040015C084101BD
:101DB000D20055084001CB00410154084001CA003F
:101DC000410153084001C900410152084001C800C7
:101DD000410161084001CF00410160084001CE008F
:101DE00041015F084001CD0041015E084001CC0087
:101DF000A531F825893140014B084101C40040015B
:101E00004A084101C300400149084101C2004001A4
:101E100048084101C10041304001DF008030DE0050
:101E20000030DD000030DC0041013508123E860044
:101E300002308700403F4001E900413FEA00690865
:101E4000A0006A08A100890D893B8909A200A300AE
:101E50000130A0311F20893140012308CB00220826
:101E6000CA002108C9002008C800410144084001F7
:101E7000CF00410143084001CE004101420840012A
:101E8000CD00410141084001CC00A531F825893140
:101E900040014B08E3004A08E2004908E100480815
:101EA000E000A331F423893140015F084101C800FB
:101EB00040015E084101C70040015D084101C600C4
:101EC00040015C084101C5005D084001CB004101B3
:101ED0005C084001CA0041015B084001C9004101A2
:101EE0005A084001C800410148084001CF004101A3
:101EF00047084001CE00410146084001CD004101A4
:101F000045084001CC00A531F825893140014B0836
:101F10004101DD0040014A084101DC00400149085F
:101F20004101DB00400148084101DA005D08400141
:101F3000CB0041015C084001CA0041015B0840013F
:101F4000C90041015A084001C8004101510840013F
:101F5000CF00410150084001CE0041014F0840012F
:101F6000CD0041014E084001CC00AB312523893121
:101F70000318BB2FBC2FC62F41015108DD005008AC
:101F8000DC004F08DB004E08DA00F62F41014D0857
:101F90004001CB0041014C084001CA0041014B08FF
:101FA0004001C90041014A084001C80041015D08E3
:101FB0004001CF0041015C084001CE0041015B08B7
:101FC0004001CD0041015A084001CC00AB3125232E
:101FD00089310318EC2FED2FF62F41014D08DD005C
:101FE0004C08DC004B08DB004A08DA0041015D08C0
:101FF000B8005C08B7005B08B6005A08B5000800D6
:102000004001A31B12282308031D11282208031DC9
:1020100011282108031D112801302002031811285E
:102020001228232840012009A0002109A10022092B
:10203000A2002309A300A00A0319A10A0319A20AF6
:102040000319A30A232808004101BD0040014F08DD
:10205000031D36284E08031D36284D08031D36285B
:102060000B304C02031C352836283F280030400135
:10207000CF000030CE000030CD000A30CC0040014F
:102080005008BF31732790314101B8003808031D53
:102090004A284B2847293D0803194F28502847292B
:1020A00040014B0803195528562847294F084E046C
:1020B0004D044C0403195D285E2843294B08860013
:1020C000870101084101A0004001500A860002304A
:1020D0008700010303196D286E28AD2800304101E7
:1020E000BC000030BB000030BA000030B9009328BB
:1020F00039083D074001D1005108860087014101A0
:1021000039083D074001D2005208840085010008CB
:102110007F39810001304101B9070030BA3D0030FC
:10212000BB3D0030BC3D40014F0841013C02031D56
:10213000A92840014E0841013B02031DA928400186
:102140004D0841013A02031DA92840014C084101F4
:102150003902031CAC28AD28782840014F08031D24
:10216000BD284E08031DBD284D08031DBD280230A3
:102170004C02031CBC28BD28F328A0304001A0005D
:102180004B08A1004F08A5004E08A4004D08A3006D
:102190004C08A20041013D08B231C22290314001F9
:1021A0004C08D1004D08D2004E08D3004F08D4008F
:1021B0000130D135D20DD30DD40D890BD928FF3084
:1021C00051074101B400FF304001523D4101B500CB
:1021D000FF304001533D4101B600FF304001543D06
:1021E0004101B700032940014F084101B7004001F8
:1021F0004E084101B60040014D084101B5004001C3
:102200004C084101B4003D088600870101084001E7
:10221000A700A030A800410137084001AC004101EF
:1022200036084001AB00410135084001AA004101D8
:1022300034084001A90050088600023087000230AF
:10224000423FAD005008063E860002308700413F05
:102250008A00403F0A0091314001D1005008033EFE
:10226000860002308700510881005008033E860036
:1022700002308700010803193E293F294A29FE3010
:102280004101B8004A29FD304101B8004A29410105
:10229000B801B8034101380808004601400841016F
:1022A000C60046013F084101C50046013E08410104
:1022B000C40046013D084101C3003808C600370884
:1022C000C5003608C4003508C30043084001E900D2
:1022D000410144084001EA00410145084001EB008A
:1022E000410146084001EC001730EC36EB0CEA0CDB
:1022F000E90C890B7529FF3069054101BD000030EB
:1023000040016A054101BE003E08803A4001E900F3
:1023100080306902031D8F29963041013D02031C64
:10232000922993299429042C410143084001E90092
:10233000410144084001EA00410145084001EB0029
:10234000410146084001EC001F30EC36EB0CEA0C72
:10235000E90C890BA5296C086B046A04690403194C
:10236000B229B329D629410138084001A30041010F
:1023700037084001A200410136084001A100410197
:1023800035084001A000BC312124913140012308CF
:102390004101B800400122084101B7004001210875
:1023A0004101B600400120084101B50041013E084D
:1023B000803A4001E90080306902031DE2297E3045
:1023C00041013D020318E529E629132A00304001A6
:1023D000B1000030B0000030AF000030AE0041016D
:1023E00046084001B500410145084001B4004101E3
:1023F00044084001B300410143084001B2009B3151
:1024000013239131400131084101B80040013008E7
:102410004101B70040012F084101B60040012E08DC
:102420004101B500042C4B304001CB000030CA0004
:102430000030C9000030C800410138084001CF0019
:10244000410137084001CE00410136084001CD006E
:10245000410135084001CC00A531F82591314001FA
:102460004B084101C20040014A084101C10040013E
:1024700049084101C000400148084101BF00CB307C
:102480004001CB000030CA000030C9000030C80055
:10249000410142084001CF00410141084001CE0006
:1024A000410140084001CD0041013F084001CC00FE
:1024B000A531F825913140014B084101BC00400194
:1024C0004A084101BB00400149084101BA004001EE
:1024D00048084101B9003808B0003708AF00360895
:1024E000AE003508AD003C08B4003B08B3003A0824
:1024F000B2003908B100B031D0209131410130082B
:10250000CA002F08C9002E08C8002D08C7003F3098
:102510004001CB000030CA000030C9000030C800C4
:1025200041014A084001CF00410149084001CE0065
:10253000410148084001CD00410147084001CC005D
:10254000AB31252391310318A62AA72A072B410175
:1025500038084001CB00410137084001CA00410161
:1025600036084001C900410135084001C800410159
:102570004A084001CF00410149084001CE00410115
:1025800048084001CD00410147084001CC00A53179
:10259000F825913140014B084101C20040014A0831
:1025A0004101C100400149084101C0004001480803
:1025B0004101BF00BF304001CB008030CA00003075
:1025C000C9000030C800410142084001CF0041016C
:1025D00041084001CE00410140084001CD004101C9
:1025E0003F084001CC00A531F825913140014B084E
:1025F0004101CA0040014A084101C900400149089F
:102600004101C800400148084101C700BA2BBF3052
:102610004001CB000030CA000030C9000030C800C3
:1026200041014A084001CF00410149084001CE0064
:10263000410148084001CD00410147084001CC005C
:10264000AB3125239131031C262B272B872B4101EE
:1026500038084001CB00410137084001CA00410160
:1026600036084001C900410135084001C800410158
:102670004A084001CF00410149084001CE00410114
:1026800048084001CD00410147084001CC00A53178
:10269000F825913140014B084101C20040014A0830
:1026A0004101C100400149084101C0004001480802
:1026B0004101BF003F304001CB008030CA000030F4
:1026C000C9000030C800410142084001CF0041016B
:1026D00041084001CE00410140084001CD004101C8
:1026E0003F084001CC00A531F825913140014B084D
:1026F0004101CA0040014A084101C900400149089E
:102700004101C800400148084101C700BA2B4101FE
:1027100038084001CB00410137084001CA0041019F
:1027200036084001C900410135084001C800410197
:102730004A084001CF00410149084001CE00410153
:1027400048084001CD00410147084001CC00A531B7
:10275000F825913140014B084101CA0040014A0867
:102760004101C900400149084101C8004001480831
:102770004101C70043084001E9004101440840010C
:10278000EA00410145084001EB00410146084001D3
:10279000EC001F30EC36EB0CEA0CE90C890BCA2B71
:1027A0006C086B046A0469040319D72BD82BFB2B24
:1027B00041014A084001A300410149084001A2002B
:1027C000410148084001A100410147084001A00023
:1027D000BC3121249131400123084101CA0040014C
:1027E00022084101C900400121084101C8004001FF
:1027F00020084101C70041014A08B8004908B70054
:102800004808B6004708B50008004101C90000307B
:10281000CD000030CC000030CB000030CA00423088
:10282000D100C830D0000030CF000030CE00C7301B
:102830004001CB009630CA000030C9000030C8000B
:1028400041013508213E860002308700403F4001AB
:10285000A000413FA100423FA200433FA30001303E
:10286000A0311F20943140012308CF002208CE0060
:102870002108CD002008CC00A531F8259431400175
:102880004B084101D90040014A084101D8004001EC
:1028900049084101D700400148084101D6005908C4
:1028A0004001B100410158084001B0004101570802
:1028B0004001AF00410156084001AE004630DF0044
:1028C0008030DE000030DD000030DC0041013508E2
:1028D0001E3E860002308700403F4001E900413F34
:1028E000EA006908A0006A08A100890D893B8909EE
:1028F000A200A3000130A0311F2094314001230821
:10290000E3002208E2002108E1002008E000A331F2
:10291000F423943140015F08B5005E08B4005D08FF
:10292000B3005C08B2009B3113239431400131089D
:10293000CB003008CA002F08C9002E08C80042305A
:10294000B1008030B0000030AF000030AE00410177
:1029500035081C3E860002308700403F4001EB00F6
:10296000413FEC006B08A0006C08A100890D893B79
:102970008909A200A3000130A0311F209431400139
:102980002308B5002208B4002108B3002008B200D3
:102990009B311323943140013108CF003008CE0021
:1029A0002F08CD002E08CC00A531F8259431400128
:1029B0004B084101BC0040014A084101BB004001F5
:1029C00049084101BA00400148084101B9003C08EA
:1029D000B0003B08AF003A08AE003908AD00490826
:1029E000083E860001308700403F4001A000413F83
:1029F000A100423FA200433FA3000030A0311F20AE
:102A00009431400123084101B400400122084101F2
:102A1000B300400121084101B200400120084101FA
:102A2000B100B031D020943141013008C0002F08EE
:102A3000BF002E08BE002D08BD0047304001DF005A
:102A40008030DE000030DD000030DC004101350860
:102A5000193E860002308700403F4001E900413FB7
:102A6000EA006908A0006A08A100890D893B89096C
:102A7000A200A3000130A0311F209431400123089F
:102A8000E3002208E2002108E1002008E000A33171
:102A9000F423943140015F084101C40040015E0805
:102AA0004101C30040015D084101C20040015C08D2
:102AB0004101C1003F304001CB008030CA000030EE
:102AC000C9000030C800410159084001B10041016E
:102AD00058084001B000410157084001AF004101D2
:102AE00056084001AE004C30DF008030DE00003080
:102AF000DD000030DC00410135081B3E860002305D
:102B0000870001084001E900EA01EB01EC016C08D3
:102B1000A3006B08A2006A08A1006908A0000030A9
:102B2000A0311F20943140012308E3002208E20075
:102B30002108E1002008E000A331F4239431400192
:102B40005F08B5005E08B4005D08B3005C08B20021
:102B50009B311323943140013108CF003008CE005F
:102B60002F08CD002E08CC00A531F8259431400166
:102B70004B084101D50040014A084101D400400101
:102B800049084101D300400148084101D2005908D9
:102B90004001B100410158084001B000410157080F
:102BA0004001AF00410156084001AE004C30DF004B
:102BB0008030DE000030DD000030DC0041013508EF
:102BC000203E86000230870001084001A0008039C5
:102BD000031DFF30A100A200A3000130A0311F207F
:102BE000943140012308E3002208E2002108E100BB
:102BF0002008E000A331F423943140015F08B500C0
:102C00005E08B4005D08B3005C08B2009B3113237A
:102C10009431400131084101E50040013008410193
:102C2000E40040012F084101E30040012E0841016A
:102C3000E2003F304001CB008030CA000030C900C4
:102C40000030C800410155084001B100410154085D
:102C50004001B000410153084001AF00410152085A
:102C60004001AE00410165084001B5004101640822
:102C70004001B400410163084001B3004101620812
:102C80004001B2009B311323943140013108CF0041
:102C90003008CE002F08CD002E08CC00A531F82535
:102CA000943140014B084101DD0040014A084101D7
:102CB000DC00400149084101DB00400148084101B6
:102CC000DA005D084001B10041015C084001B0003C
:102CD00041015B084001AF0041015A084001AE00CC
:102CE000410155084001B500410154084001B400BC
:102CF000410153084001B300410152084001B200B4
:102D00009B3113239431400131084101E50040011A
:102D100030084101E40040012F084101E300400177
:102D20002E084101E20044084001B100410143087E
:102D30004001B000410142084001AF00410141089B
:102D40004001AE00410140084001B50041013F088B
:102D50004001B40041013E084001B30041013D087B
:102D60004001B2009B3113239431400131084101ED
:102D7000C800400130084101C70040012F0841014F
:102D8000C60040012E084101C50065084001B100A0
:102D9000410164084001B000410163084001AF00F7
:102DA000410162084001AE00410148084001B50000
:102DB000410147084001B400410146084001B30009
:102DC000410145084001B2009B3113239431400179
:102DD00031084101DD00400130084101DC004001C3
:102DE0002F084101DB0040012E084101DA00493083
:102DF0004001DF000030DE000030DD000030DC008C
:102E000041015D084001B10041015C084001B00092
:102E100041015B084001AF0041015A084001AE008A
:102E200041013508183E8600023087000108400144
:102E3000E900EA01EB01EC016C08A3006B08A200B9
:102E40006A08A1006908A0000030A0311F20943159
:102E500040012308B5002208B4002108B30020086F
:102E6000B2009B311323943140013108E300300854
:102E7000E2002F08E1002E08E000A331F423943192
:102E800040015F084101B00040015E084101AF0010
:102E900040015D084101AE0040015C084101AD0008
:102EA0003F30B4008030B3000030B2000030B100D9
:102EB000B031D020943141013008E5002F08E40002
:102EC0002E08E3002D08E2005D084001B100410139
:102ED0005C084001B00041015B084001AF004101C6
:102EE0005A084001AE00410165084001B5004101AA
:102EF00064084001B400410163084001B30041018E
:102F000062084001B2009B31132394314001310823
:102F10004101E100400130084101E00040012F087B
:102F20004101DF0040012E084101DE00510840014F
:102F3000CB00410150084001CA0041014F08400147
:102F4000C90041014E084001C8004101610840012B
:102F5000CF00410160084001CE0041015F084001FF
:102F6000CD0041015E084001CC00AB3125239431F6
:102F70000318BB2FBC2FC62F41015108E100500898
:102F8000E0004F08DF004E08DE00F62F4101610827
:102F90004001CB00410160084001CA0041015F08C7
:102FA0004001C90041015E084001C80041014D08CF
:102FB0004001CF0041014C084001CE0041014B08C7
:102FC0004001CD0041014A084001CC00AB3125232E
:102FD00094310318EC2FED2FF62F41014D08E1003D
:102FE0004C08E0004B08DF004A08DE0041016108A0
:102FF000B8006008B7005F08B6005E08B5000800BA
:103000004101DB00DC304201DF000030E000003035
:10301000E4000030E3000030E2000130E100410153
:103020005B084201E500F33087319D27983141016B
:10303000DC1D1B281D2801301E280030080040011F
:10304000BB00B91B24282628013027280030C200E5
:10305000420803192C282D283228B809B909B80AC2
:103060000319B90AF71F352836283B280130BE005E
:103070000030BF003F287708BF007608BE0045013A
:1030800066084001C100450165084001C0004208D2
:1030900003194B284C286028FF30C007FF30C13D82
:1030A0004208031D542855285A282B30BC000030F4
:1030B000BD005E282D30BC000030BD003C08C200C1
:1030C0004F30C3000030C4004701EF01A028FF309B
:1030D0004001C307FF30C43D4308A03E86000330D3
:1030E00087000A30A0000030A1003908A30038088A
:1030F000A200B4313124983140012108A8002008F1
:10310000A700BD318925983140012708303E810054
:10311000FF30BE07FF30BF3DFF30C007FF30C13D6D
:103120000A30A0000030A1003908A3003808A2002E
:10313000B731A027983140012108B9002008B80014
:1031400040014408803ABA0080303A02031DAA28A0
:1031500001304302031CAD28AE28C22840013808C4
:103160003904031DB428B52867283F08803ABA00FF
:1031700080303A02031DBE2801303E020318C128E8
:10318000C2286728400142080319C728C828D32845
:10319000FF30C307FF30C43D4308A03E8600033024
:1031A0008700420881004308A03EAF004108B100FB
:1031B0004008B0003B08B331052398314001300886
:1031C000B9002F08B80008004101D10042015008A1
:1031D00086008701403F4101C600413FC7004608C5
:1031E0008400470885001200253A031DF828F928B5
:1031F000EA2A4201500886008701013081074131E7
:103200000318810A4501E501E601031000300318A7
:103210000130ED00FF30F600FF30F70042015008AA
:1032200086008701403F4101D200413FD300520850
:103230008400530885001200643A031920292129CB
:103240002B2952088400530885001200693A031D97
:103250002A292B295E29420151088600870101088D
:1032600084000130850002308107003F4101CC001D
:10327000013FCD005208013EC6000030533DC7005B
:10328000420150088600870141014608C03F4708B7
:10329000C13F4D084001B90041014C084001B80050
:1032A0004101510898311F209831400139084201ED
:1032B000D100400138084201D000122B520884008E
:1032C0005308850012006E3A031D67296829942966
:1032D0004201510886008701010884000130850001
:1032E00002308107003F4101C600013FC700460888
:1032F00086004708870046014908C03F4A08C13F89
:1033000041015208013EC6000030533DC700420152
:1033100050088600870141014608C03F4708C13F69
:103320004201D001D101122B4201500886008701D1
:10333000403F4101C600413FC7004608840047089E
:1033400085001200733A0319A629A729C229420150
:10335000500886008701403F4001A000413FA10086
:10336000B530A200B830A3000330A4000030A5009F
:10337000B73143279831400120082104031DC1299A
:10338000C229062A4201500886008701403F4101B8
:10339000C600413FC7004608840047088500120068
:1033A000733A0319D429D529DA290330CA00003029
:1033B000CB00DE290130CA000030CB0042015008AA
:1033C0008600870141014A08810741314B08813D50
:1033D0007F314201510886008701010884000130D5
:1033E000850002308107003F4001A800013FA9008D
:1033F00041015108AD317A25983140012908420137
:10340000D100400128084201D000122B420150088F
:1034100086008701403F4101D200413FD30052085E
:103420008400530885000008D000202A0130D2070C
:103430000030D33D332A6C30D000332AD001332AF8
:103440005008C600C7014708003A0319282A1E2A57
:1034500046084C3A0319162A2B3A03191B2A0B3A31
:103460000319162A1E2A52088400530885001200E8
:10347000673A031D3C2A3D2AB22A662A42015108B6
:10348000860087010108840001308500043081072F
:10349000003F4101CC00013FCD00023FCE00033F81
:1034A000CF00762A42015108860087010108840076
:1034B0000130850004308107003F4101CC00013F0D
:1034C000CD00023FCE00033FCF00762A5008C60051
:1034D000C7014708003A03196E2A762A46084C3A73
:1034E0000319522A203A03193E2A762A5208013E2D
:1034F000C6000030533DC7004201500886008701D6
:1035000041014608C03F4708C13FA12A4F08C000FB
:103510004E08BF004D08BE004C08BD005208840094
:10352000530885000008C1005108A231D322983108
:1035300041013E084201D10041013D084201D00055
:10354000122B52088400530885000008C600C701EA
:103550004708003A0319AD2AB22A4608673A031908
:10356000862AB22A4201500886008701403F410165
:10357000C600413FC7004608840047088500120086
:10358000253A031DC42AC52AE02A420150088600B4
:1035900087010130810741310318810A253040013C
:1035A000A0000030A100410151084001A200B53146
:1035B0002F25983101304201D0000030D100122B6C
:1035C000420150088600870101308107413103180C
:1035D000810A90294201500886008701403F41013D
:1035E000C600413FC7004608840047088500000820
:1035F000C800C90148084001A00041014908400134
:10360000A100410151084001A200B5312F25983198
:1036100042015008860087010130810741310318BB
:10362000810ADA2A0800400131088039BB003135AF
:10363000BD00B01F1C2B1D2B1E2B3D143D08031974
:10364000222B232B322B3D0A031D272B282B302B1B
:103650000030B1000030B0000030AF000030AE00EC
:10366000B0173A2B0030B1000030B0000030AF008E
:103670000030AE0035088039B6003608BB06353557
:10368000BC00B41F442B452B462B3C143C080319AB
:103690004A2B4B2B5A2B3C0A031D4F2B502B582BDC
:1036A0000030B5000030B4000030B3000030B2008C
:1036B000B417622B0030B5000030B4000030B30006
:1036C0000030B2003C080319662B672B6C2B3D08B9
:1036D000031D6B2B6C2B752B0030B1000030B0003C
:1036E0000030AF000030AE004D2D2E08A000340891
:1036F000BE312C269B3140012108C7002008C6009E
:103700004608B600B701B801B9013908C100380848
:10371000C0003708BF003608BE004708B600B70132
:10372000B801B9013908C5003808C4003708C3001A
:103730003608C2002F08A0003308BE312C269B316A
:1037400040012108C7002008C6004608B600B7019E
:10375000B801B9013608BE073708BF3D3808C03D7B
:103760003908C13D4708B600B701B801B9013608AC
:10377000C2073708C33D3808C43D3908C53D300885
:10378000A0003208BE312C269B3140012108C70021
:103790002008C6004608B600B701B801B9013608CE
:1037A000BE073708BF3D3808C03D3908C13D47084E
:1037B000B600B701B801B9013608C2073708C33DE2
:1037C0003808C43D3908C53D0830BE35BF0DC00DB1
:1037D000C10D890BE52B2F08A0003208BE312C2625
:1037E0009B3140012108C7002008C6004608BE07DB
:1037F0004708BF3D0030C03DC13D2E08A000330842
:10380000BE312C269B3140012108C7002008C6008C
:103810004608BE074708BF3D0030C03DC13D0830E7
:10382000BE35BF0DC00DC10D890B102C2E08A00098
:103830003208BE312C269B3140012108C7002008E8
:10384000C6004608BE074708BF3D0030C03DC13D29
:103850002F08A0003408BE312C269B3140012108DE
:10386000C7002008C6004608C2074708C33D00300D
:10387000C43DC53D3008A0003308BE312C269B3125
:1038800040012108C7002008C6004608C2074708B3
:10389000C33D0030C43DC53D3008A0003408BE31F2
:1038A0002C269B3140012108C7002008C60046088D
:1038B000B6004708B700B801B9010830B635B70DF2
:1038C000B80DB90D890B5E2C3608C2073708C33D09
:1038D0003808C43D3908C53D3E08B6003F08B7006A
:1038E0004008B8004108B9001830B936B80CB70C18
:1038F000B60C890B752C3608C2073708C33D38084B
:10390000C43D3908C53D0830BE35BF0DC00DC10DE1
:10391000890B842C3D083C07B600B701B70D36086B
:10392000823EC600FF30373DC700AD2C0130C235A6
:10393000C30DC40DC50D890B972CC11FA02CA12C44
:10394000A22C42140130BE35BF0DC00DC10D890B34
:10395000A32CFF30C607FF30C73DC41FB02CB12CCD
:10396000962CBC01C11FB52CB62CD22CFF303E05C5
:10397000B600FF303F05B700FF304005B8007F308C
:103980004105B90039083804370436040319C92C35
:10399000CA2CCD2CBC01BC0AD22C421CD02CD12C60
:1039A000D22CCA2C3C080319D62CD72CFF2C013062
:1039B000C2070030C33D0030C43D0030C53D451C4A
:1039C000E22CE32CFF2C4208B6004308B700440861
:1039D000B8004508B9000130BA00B937B80CB70CC7
:1039E000B60CBA0BED2C3908C5003808C4003708EE
:1039F000C3003608C2000130C6070030C73D470883
:103A0000803AB60080303602031D082DFF30460292
:103A1000031C0B2D0C2D162D7F304001C50080306E
:103A2000C4000030C3000030C200412D40014708EF
:103A3000803AB60080303602031D202D0130460248
:103A40000318232D242D2F2D00304001C5000030F8
:103A5000C4000030C3000030C200BB01412D400152
:103A60004608BD00FF30C205FF30C3057F30C405E6
:103A70000030C5053D1C3D2D3E2D3F2DC4173D3664
:103A8000C5003B08B6003608C5044508B100440827
:103A9000B0004308AF004208AE0008004101C50075
:103AA000C230C0002030BF000030BE000030BD007A
:103AB0004230C400AA30C3000030C2000030C10050
:103AC00044304001DF008030DE000030DD00003097
:103AD000DC0041013508860002308700403F40018C
:103AE000E900413FEA006908A0006A08A100A201BC
:103AF000A3010030A0311F209D3140012308E300C5
:103B00002208E2002108E1002008E000A331F423AC
:103B10009D3140015F084101B00040015E08410154
:103B2000AF0040015D084101AE0040015C08410169
:103B3000AD0046304001DF008030DE000030DD00A7
:103B40000030DC0041014508043E8600013087005A
:103B5000403F4001A000413FA100423FA200433F3F
:103B6000A3000030A0311F209D3140012308E30055
:103B70002208E2002108E1002008E000A331F4233C
:103B80009D3140015F084101B40040015E084101E0
:103B9000B30040015D084101B20040015C084101F1
:103BA000B100B031D0209D3141013008C9002F084B
:103BB000C8002E08C7002D08C60049084001B10002
:103BC000410148084001B000410147084001AF00F1
:103BD000410146084001AE0041013508023E860021
:103BE00002308700403F4001E900413FEA00690898
:103BF000A0006A08A100890D893B8909A200A300E1
:103C00000130A0311F209D3140012308B50022085A
:103C1000B4002108B3002008B2009B3113239D316A
:103C2000400131084101C900400130084101C8008C
:103C300040012F084101C70040012E084101C60084
:103C400046304001DF000030DE000030DD00003093
:103C5000DC0041013508860002308700403F40010A
:103C6000E900413FEA006908A0006A08A100A2013A
:103C7000A3010030A0311F209D3140012308E30043
:103C80002208E2002108E1002008E000A331F4232B
:103C90009D3140015F084101B00040015E084101D3
:103CA000AF0040015D084101AE0040015C084101E8
:103CB000AD0048304001DF000030DE000030DD00A4
:103CC0000030DC0041014508043E860001308700D9
:103CD000403F4001A000413FA100423FA200433FBE
:103CE000A3000030A0311F209D3140012308E300D4
:103CF0002208E2002108E1002008E000A331F423BB
:103D00009D3140015F084101B40040015E0841015E
:103D1000B30040015D084101B20040015C0841016F
:103D2000B100B031D0209D3141013008D1002F08C1
:103D3000D0002E08CF002D08CE0051084001B10060
:103D4000410150084001B00041014F084001AF005F
:103D500041014E084001AE00410151084001B5004B
:103D6000410150084001B40041014F084001B30037
:103D700041014E084001B2009B3113239D314001A7
:103D800031084101BC00400130084101BB00400145
:103D90002F084101BA0040012E084101B900350841
:103DA000043E860002308700403F4001E900413F69
:103DB000EA006908A0006A08A100890D893B890909
:103DC000A200A3000130A0311F209D314001230833
:103DD000B1002208B0002108AF002008AE00410168
:103DE0003C084001B50041013B084001B4004101DD
:103DF0003A084001B300410139084001B2009B314B
:103E000013239D31400131084101D10040013008A8
:103E10004101D00040012F084101CF0040012E0890
:103E20004101CE0049084001CF004101480840014E
:103E3000CE00410147084001CD0041014608400144
:103E4000CC00410151084001CB0041015008400124
:103E5000CA0041014F084001C90041014E0840011C
:103E6000C800A531F8259D3140014B08DF004A0804
:103E7000DE004908DD004808DC00A93142219D31FF
:103E800041013508213E86000230870040015C0870
:103E9000C03F5D08C13F5E08C23F5F08C33F453079
:103EA000DF00A030DE000030DD000030DC0041012A
:103EB00051084001CB00410150084001CA004101B6
:103EC0004F084001C90041014E084001C8004101AE
:103ED00049084001CF00410148084001CE0041019E
:103EE00047084001CD00410146084001CC00A53102
:103EF000F8259D3140014B08E3004A08E2004908DB
:103F0000E1004808E000A331F4239D3140015F083F
:103F10004101CD0040015E084101CC0040015D0837
:103F20004101CB0040015C084101CA004D0840013D
:103F3000CB0041014C084001CA0041014B0840013F
:103F4000C90041014A084001C80041014008400140
:103F5000CF0041013F084001CE0041013E08400131
:103F6000CD0041013D084001CC00AB3125239D31FE
:103F70000318BB2FBC2FC62F41014008CD003F08BE
:103F8000CC003E08CB003D08CA00F62F4101440892
:103F90004001CB00410143084001CA0041014208F1
:103FA0004001C900410141084001C80041014D08DC
:103FB0004001CF0041014C084001CE0041014B08B7
:103FC0004001CD0041014A084001CC00AB3125231E
:103FD0009D310318EC2FED2FF62F41014408CD0041
:103FE0004308CC004208CB004108CA0041014D08FB
:103FF000B8004C08B7004B08B6004A08B5000800E6
:10400000080048304C01920090309000263091001A
:1040100044308E008F0101304001A0002830A10003
:10402000BC316224A0318B304001A0003B30A100A4
:10403000BC317124A0314601CD01CE010800400100
:10404000A80028080319252826283A28A31F29286C
:104050002A283A282009AA002109AB002209AC002D
:104060002309AD00AA0A0319AB0A0319AC0A031904
:10407000AD0A42282308AD002208AC002108AB009D
:104080002008AA002308220421042004031D492833
:104090004A2853280030A3000030A2000030A100BD
:1040A0000030A000C9289630A90061280130A40082
:1040B0002408A9070130AD36AC0CAB0CAA0C890B57
:1040C0005B28FE302D05031D6628672856287B28AF
:1040D0000130A4002408A9070130AA070030AB3D35
:1040E0000030AC3D0030AD3D0130AD36AC0CAB0C1A
:1040F000AA0C890B7528FF302D05031D8028812807
:1041000068288B280130A9020130AA35AB0DAC0D0F
:10411000AD0D890B8528AC1B8E288F289528023081
:104120002902031894289528822829189828992864
:10413000A128FF30AA05FF30AB057F30AC05FF306A
:10414000AD050310A90C2908A400A501A601A7012B
:104150001830A435A50DA60DA70D890BA928240894
:10416000AA042508AB042608AC042708AD042808D7
:104170000319BB28BC28C128A31FBF28C028C128F9
:10418000AD172D08A3002C08A2002B08A1002A08B7
:10419000A0000800BC31D724A0318B170B17A0302A
:1041A00086000230870009304401E00000301E0024
:1041B000E00BD72800304201D700F030D80095300E
:1041C000D900B830DA000830DB00B4318524A031E2
:1041D00000304001A200F030A300A030A40008305D
:1041E000A500B0313920A031A0304201D500023005
:1041F000D600BC318F24A0314501A901BC313A243D
:10420000A031BB31BA23A031400118152930440137
:10421000E1009630E0007F30890B0C29E00B0C297F
:10422000E10B0C29BC313A24A031BB31BA23A031B7
:10423000B3314923A0314301BC30860001308700EF
:10424000B6308400023085002F304401E0001600B3
:104250001A00E00B2729B630B331DF23A031430128
:10426000B630860001308700AA3084000230850015
:104270000C304401E00016001A00E00B3B29A0308E
:104280004201E3007530E400B830E5000430AA3E96
:10429000860002308700403FE600413FE700423F92
:1042A000E800433FE9002030AE311D26A03129301F
:1042B0004401E1009630E0007F30890B5D29E00B7E
:1042C0005D29E10B5D29A0304201E3009E30E4004E
:1042D000B830E5000830AA3E860002308700403F33
:1042E000E600413FE700423FE800433FE90020305D
:1042F000AE311D26A03129304401E1009630E000A6
:104300007F30890B8129E00B8129E10B8129A030C5
:104310004201E3008C30E400B830E50045012D088F
:104320004201E90045012C084201E80045012B0843
:104330004201E70045012A084201E6002030AE3183
:104340001D26A03129304401E1009630E0007F3085
:10435000890BA829E00BA829E10BA8294001181115
:104360001B3043018C004501A90163000130440169
:10437000E00060084501A90772302902031CC12929
:10438000C229B5291A3043018C0004298031312813
:104390004001A30020080A3EA200230A8400013045
:1043A00085000008A1002308840001308500220850
:1043B0008600023087000008C03F2108C13F230863
:1043C000033E8400013085000008A1002308023E5E
:1043D0008400013085002208023E860002308700FA
:1043E0000008C03F2108C13F2308053E840001307A
:1043F00085000008A1002308043E840001308500E8
:104400002208043E8600023087000008C03F2108D1
:10441000C13F2308073E8400013085000008A10049
:104420002308063E8400013085002208063E8600EF
:10443000023087000008C03F2108C13F2308093E21
:104440008400013085000008A1002308083E840094
:10445000013085002208083E8600023087000008EF
:10446000C03F2108C13F23080B3E84000130850076
:104470000008A10023080A3E8400013085002208BC
:104480000A3E8600023087000008C03F2108C13F75
:1044900023080D3E8400013085000008A100230898
:1044A0000C3E84000130850022080C3E860002305C
:1044B00087000008C03F2108C13F23080F3E840049
:1044C000013085000008A10023080E3E8400013061
:1044D000850022080E3E8600023087000008C03F9B
:1044E0002108C13F2308113E8400013085000008E7
:1044F000A1002308103E8400013085002208103EF0
:104500008600023087000008C03F2108C13F230811
:10451000133E8400013085000008A1002308123EEC
:104520008400013085002208123E86000230870098
:104530000008C03F2108C13F2308153E8400013018
:1045400085000008A1002308143E84000130850086
:104550002208143E8600023087000008C03F210870
:10456000C13F2308173E8400013085000008A100E8
:104570002308163E8400013085002208163E86007E
:10458000023087000008C03F2108C13F2208183EC2
:104590008600023087002308193E84000130850020
:1045A0000008810008004201AC00C101410140083F
:1045B0004201C70041013F084201C60041013E08D7
:1045C0004201C50041013D084201C40047084001C5
:1045D000CB00420146084001CA00420145084001A3
:1045E000C900420144084001C8000030CF0000303B
:1045F000CE000030CD000030CC00AB312523A231FD
:104600000318032B042B292B4201C101C10A4708BF
:104610004001A300420146084001A20042014508B2
:104620004001A100420144084001A000BC31212406
:10463000A231400123084201C70040012208420183
:10464000C600400121084201C50040012008420186
:10465000C4004201CA01CB01450166084201B8000D
:10466000450165084201B70041080319382B392B71
:10467000492B4108031D3D2B3E2B432B2B30A00023
:104680000030A100472B2D30A0000030A1002008F1
:10469000C10047084001A300420146084001A200B2
:1046A000420145084001A100420144084001A00028
:1046B000AA312622A231400120032104031D612BCF
:1046C000622B9E2B420141080319672B682B742B28
:1046D00041084701A000FF304201B707FF30B83D55
:1046E0000130CA000030CB00AD304001A000B8302E
:1046F000A10042014A08A03EBD31A525A231FD30EE
:104700004201B707FF30B83DA0304001AF00420181
:1047100038084001B100420137084001B0004201B1
:104720002C08B3310523A231400130084101BE00FD
:1047300040012F084101BD0087319C2F42014708ED
:104740004001A300420146084001A2004201450881
:104750004001A100420144084001A000AA312622E4
:10476000A231400120082104031DB72BB92B803151
:104770008D28420141080319BE2BBF2BCB2B4108CA
:104780004701A000FF304201B707FF30B83D0130BC
:10479000CA000030CB00B1304001A000B830A10009
:1047A00042014A08A03EBD31A525A231FD3042019B
:1047B000B707FF30B83DA0304001AF0042013808D4
:1047C0004001B100420137084001B00042012C080D
:1047D000B3310523A231400130084101BE00400140
:1047E0002F084101BD009C2B400163088039410125
:1047F000A400400163354101AB004001E21F012CE0
:10480000022C042C41012B1441012B080319092C03
:104810000A2C1C2C2B0A031D0E2C0F2C182C0030DC
:104820004001E3000030E2000030E1000030E00031
:104830004001E217E301252C00304001E300003085
:10484000E2000030E1000030E0005F088039E40061
:1048500064084101A40640015F354101AC004001FC
:10486000DE1F332C342C362C41012C1441012C0832
:1048700003193B2C3C2C4E2C2C0A031D402C412CA4
:104880004A2C00304001DF000030DE000030DD0047
:104890000030DC004001DE17DF01572C0030400102
:1048A000DF000030DE000030DD000030DC005F089B
:1048B0005E045D045C04031D5E2C5F2C7A2C0030CA
:1048C000E3000030E2000030E1000030E000803022
:1048D000E2047F30E304410124084001E40064085D
:1048E000E3046308DF006208DE006108DD006008A1
:1048F000DC00F72D41012B08031D7F2C802C8A2C16
:1049000000304001DF000030DE000030DD0000300C
:10491000DC00F72D2B084001E400E5016508E70005
:1049200041012C0840016402E600031CE70366080D
:104930007F3E4101A50000304001673D4101A600D6
:10494000400163084101A300400162084101A20047
:10495000400161084101A100400160084101A0003F
:1049600000304001E3000030E2000030E1000030A0
:10497000E00000304101AA000030A9000030A8008A
:104980000030A700AC01182D2C080319C82CC92C25
:10499000E72C0130A035A10DA20DA30D890BCA2C67
:1049A00001304001E035E10DE20DE30D890BD12C22
:1049B0004101AA1FDC2CDD2CDF2C400160140130EA
:1049C0004101A735A80DA90DAA0D890BE02C4001C6
:1049D0005F0841012302031DFD2C40015E084101D7
:1049E0002202031DFD2C40015D0841012102031D2F
:1049F000FD2C40015C0841012002031C002D012D0B
:104A0000122D2A1740015C084101A00240015D08F7
:104A10004101A13B40015E084101A23B40015F080A
:104A20004101A33B01304001E40064084101AC07AF
:104A30001A302C02031C1D2D1E2DC42C2308220409
:104A4000210420040319252D262D422D2714422D43
:104A50000130E035E10DE20DE30D890B292D410117
:104A6000AA1F332D342D362D400160140130410131
:104A7000A735A80DA90DAA0D890B372DFF30A50765
:104A8000FF30A63D4001E21F462D472D282D410154
:104A9000AC01AA1F4C2D4D2D712DFF302705400173
:104AA000E400FF30410128054001E500FF304101ED
:104AB00029054001E6007F3041012A054001E70059
:104AC00067086604650464040319672D682D6C2D5E
:104AD0004101AC01AC0A712D601C6F2D702D712D40
:104AE000682D41012C080319762D772DA12D013059
:104AF0004001E0070030E13D0030E23D0030E33DA1
:104B0000631C832D842DA12D6008E4006108E5005D
:104B10006208E6006308E7000130E800E737E60CCA
:104B2000E50CE40CE80B8E2D6708E3006608E20054
:104B30006508E1006408E00001304101A50700308C
:104B4000A63D41012608803A4001E400803064021D
:104B5000031DAD2DFF3041012502031CB02DB12DE9
:104B6000BF2DFF304101A5000030A60000304001FC
:104B7000E3000030E2000030E1000030E0004101DD
:104B80002608803A4001E40080306402031DCB2DEA
:104B90000130410125020318CE2DCF2DDD2D41011D
:104BA000A501A60100304001E3000030E200003022
:104BB000E1000030E0004101A40141012508AB0003
:104BC0002B1CE32DE42DE72D4001E217EC2D7F3067
:104BD0004001E4006408E20541012B364001E30096
:104BE000410124084001E4006408E304712C08003A
:104BF00040014B088039D8004B35DA00CA1F012E1E
:104C0000022E032E5A145A080319072E082E182EA6
:104C10005A0A031D0C2E0D2E152E0030CB0000302D
:104C2000CA000030C9000030C800CA17CB01202ECE
:104C30000030CB000030CA000030C9000030C8008E
:104C40004F088039D900590858060319282E292EF3
:104C50002A2E58174F35D900CE1F2F2E302E312E29
:104C6000591459080319352E362E462E590A031D9C
:104C70003A2E3B2E432E0030CF000030CE000030C5
:104C8000CD000030CC00CE17CF014E2E0030CF002B
:104C90000030CE000030CD000030CC005A08590260
:104CA0000318532E542E7A2E581F572E582E5C2E32
:104CB0008030D0005008D8065A08DB005908DA00C6
:104CC0005B08D9004808DB004C08C8005B08CC0032
:104CD0004908DB004D08C9005B08CD004A08DB002D
:104CE0004E08CA005B08CE004B08DB004F08CB0023
:104CF0005B08CF00DB015908D000D1015108D30077
:104D00005A085002D200031CD3035308803AD4003F
:104D100080305402031D8E2E1A305202031C912E35
:104D2000922EC42E40014B084A0449044804031D36
:104D30009A2E9C2E01309D2E0030DB000030CB00DF
:104D40000030CA000030C9000030C8005908DA003D
:104D5000CB2E5B1CAC2EAD2EB12E5B360138DB00AA
:104D6000B32E0310DB0C481CB62EB72EB82EDB1763
:104D70000130D000CB37CA0CC90CC80CD00BBA2EEE
:104D80000130D0005008DA07400159085A02031CCC
:104D9000CA2ECB2EA92E581BCE2ECF2E052F5A0849
:104DA000031DD32ED42EDD2E0030CB000030CA00E0
:104DB0000030C9000030C800FF2F4C08C8074D085C
:104DC000C93D4E08CA3D4F08CB3D4B1CE82EE92E8D
:104DD000912F5B1CEC2EED2EF12E5B360138DB00A3
:104DE000F32E0310DB0C481CF62EF72EF82EDB17E3
:104DF0000130D000CB37CA0CC90CC80CD00BFA2E2E
:104E00000130D0005008DA07912F4B08803AD000CB
:104E10004F08803A5002031D172F4E084A02031D07
:104E2000172F4D084902031D172F4C08480203187D
:104E30001A2F1B2F532FFF30D000FF30D100FF302F
:104E4000D200FF30D30048084C02D40049084D3B43
:104E5000D5004A084E3BD6004B084F3BD7005408BC
:104E6000D0075508D13D5608D23D5708D33D5308C9
:104E7000CB005208CA005108C9005008C800803051
:104E8000D0005008D806DB09DB0A5B08031D492F58
:104E90004A2F5B2F0130C8070030C93D0030CA3DA2
:104EA0000030CB3D5B2F4C08C8024D08C93B4E0873
:104EB000CA3B4F08CB3B4B084A0449044804031D36
:104EC000622F632F8D2F5B08031D672F682F8D2F97
:104ED0000030CB000030CA000030C9000030C800EC
:104EE000FF2F0130C835C90DCA0DCB0D890B722FAC
:104EF000DB1F7B2F7C2F7D2F48145B1C802F812F85
:104F0000842F0314DB0D862F0310DB0D5A080319C1
:104F10008A2F8B2F8D2F0130DA02CA1F902F912FED
:104F2000712FD901DB1F952F962FA42F5B087F3996
:104F300003199B2F9C2F9F2FD901D90AA42F481CFE
:104F4000A22FA32FA42F9C2F59080319A82FA92FF4
:104F5000D62F0130C8070030C93D0030CA3D0030AF
:104F6000CB3D4B1CB42FB52FD62F4808D000490895
:104F7000D1004A08D2004B08D3000130D400D33707
:104F8000D20CD10CD00CD40BBF2F5308CB0052083D
:104F9000CA005108C9005008C8005A0A0319D12F85
:104FA000D22FD62F0130D0005008DA075A0A031941
:104FB000DA2FDB2FE02F5A08031DDF2FE02FEE2F13
:104FC0000030CB000030CA000030C9000030C800FB
:104FD0005A08031DEC2FED2FEE2FD8015A1CF12F8C
:104FE000F22FF42FCA17F82F7F30D0005008CA05CF
:104FF0005A36CB00D81FFD2FFE2FFF2FCB170800EE
:10500000080008004301A00042016D0803190928A7
:105010000A2863286E08E600A230BF311A27A8319B
:105020004301A1002108031D162817282328220860
:1050300003191B281C28232842016E08B131802146
:10504000A8314301A1002108031D2728282866282C
:1050500020084001A0000730BC315424A831003A98
:10506000031933283428422842016D08E900023030
:10507000EA006E08EB0043012008BE31C426A831C7
:105080004301A10043012108031D47284828662841
:1050900020084001A0001830BC315424A831003A47
:1050A000031953285428662842016D08E60002308F
:1050B000E7006E08E80043012008B5318625A831D5
:1050C0004301A10066284301A101A1034301210876
:1050D0000800363086000030870014304001AE00F2
:1050E00000301E00AE0B71282708B600CA018928BF
:1050F0004A08013E363E860087014A082807AE006E
:105100002E0884008501000881000130AE002E08C1
:10511000CA070130AE000030AF000030B0000030F0
:10512000B1002908AE072A08AF3D2B08B03D2C0876
:10513000B13D4A08B200B301B401B50131083502EE
:10514000031DAC2830083402031DAC282F0833029D
:10515000031DAC282E083202031CAF28B028782883
:105160007A08AE00AF012E08A1002F08A200363049
:10517000A3002908013EA40000302A3DA500B0315B
:105180000820A831003A031DC628C728C928FE30C8
:10519000D228BC31AF24A831003A031DD028D12831
:1051A000C928003008004101DF00E030DD00E001E7
:1051B0000530DB00B630DC00DC304001CB000030D5
:1051C000CF000030CE000030CD000130CC004101D6
:1051D0005F084001D000DD3090312420A83141012A
:1051E000DE005E08031DF528F62840290030400146
:1051F000A3000030A2000730A100D030A000410180
:105200005F088600023087000230423F4001A40060
:1052100041015F08083E860002308700413F8A0056
:10522000403F0A00A931E0304201DF000030E000D9
:105230000030E4000030E3000030E2000130E10023
:1052400041015F084201E500F33087319D27A83115
:105250004101DE005E08031D2E292F293A29013065
:10526000DB025B0A0319352936293A2960183929E6
:105270003A29F628601C3D293E294029FA30DE00F3
:105280005E080800031040015E0D5F0DE500650833
:10529000031D4B294C2955290030DF000030DE006A
:1052A0000030DD000030DC00B2295C08E0005D0861
:1052B000E1005E08E2005F08E3001F30E336E20C25
:1052C000E10CE00C890B5E296008E400DE17FF307A
:1052D000DC05FF30DD05FF30DE050030DF059630F0
:1052E000E502E51F742975298D296508803A973EE6
:1052F00003187B297C297D294C290130DF36DE0CFF
:10530000DD0CDC0C890B7E290130E0006008E5072C
:10531000031D8B298C297D29A22920306502031CBD
:10532000922993299D294C290130DC35DD0DDE0DB4
:10533000DF0D890B95290130E5026508031DA129C0
:10534000A229942964080319A629A729B229DC09EE
:10535000DD09DE09DF09DC0A0319DD0A0319DE0AAB
:105360000319DF0A08004001A6002608860087010D
:1053700001080739A2002008023EA3000030213DA9
:10538000A40023088600240887002208810026083C
:10539000023E860087010108A2000230A236890B76
:1053A000CE2922080739A30020088600210887009B
:1053B000230881002608023E860087010108A2001A
:1053C0000530A236890BE12922080739A3002008FD
:1053D000013EA4000030213DA500240886002508D8
:1053E0008700230881002608033E86008701010804
:1053F000A2000230A236890BFA2922080739A3003D
:105400002008033EA4000030213DA50024088600AA
:1054100025088700230881002608033E86008701AF
:105420000108A2000530A236890B132A2208073989
:10543000A3002008043EA4000030213DA50024085C
:1054400086002508870023088100080046014808D7
:105450004001AF00460147084001AE004601460842
:105460004001AD00460145084001AC002308AF00F3
:105470002208AE002108AD002008AC002C08A400D2
:105480002D08A5002E08A6002F08A7001730A73664
:10549000A60CA50CA40C890B472AFF302405AA00F2
:1054A00000302505AB002A082B04031D582A592A71
:1054B0007A2A2C08A4002D08A5002E08A6002F0883
:1054C000A7000130A435A50DA60DA70D890B622AF2
:1054D0002708260425042404031D6F2A702A752A30
:1054E0000230A0000030A100A42A0330A000003048
:1054F000A100A42A2A0A2B04031D7F2A802AA02A9D
:105500002C08A4002D08A5002E08A6002F08A7002F
:105510000930A435A50DA60DA70D890B892A2708EA
:105520002604250424040319962A982A0130992A6E
:105530000030A800A9012808A0002908A100A42A79
:105540000430A0000030A10008004101DA00DB01B6
:10555000DC0101304201D5008030D600BC318F24FF
:10556000AA314101DD015D085A074001EF006F08D3
:1055700086000230870001084101D700570840012A
:10558000A000BB319D23AA31BB318F23AA31003A41
:105590000319CB2ACC2AC42A4101D801D80A5B08B6
:1055A000031DD32AD42AE42A5D085A074001EF00DC
:1055B0006F088600023087000D3001060319E12ACA
:1055C000E22AE42A4101D80141015808031DE92AD1
:1055D000EB2A0130EC2A0030DB00D901D90A5C0843
:1055E000031DF32AF42A042B5D085A074001EF003B
:1055F0006F088600023087000A3001060319012B6C
:10560000022B042B4101D90141015908031D092B2B
:105610000B2B01300C2B0030DC005B080319112B25
:10562000122B182B5C080319162B172B182B242B65
:1056300001304001EF006F084101DD073C305D02A1
:10564000031C232B242BB32A0800003040014805FB
:10565000D00000304905D10080304A05D2007F30AB
:105660004B05D3005308520451045004031D392B39
:105670003A2B422B0030CB000030CA000030C9006A
:105680000030C80000304C05D00000304D05D1007E
:1056900080304E05D2007F304F05D30053085204AE
:1056A00051045004031D552B562B5E2B0030CF00A8
:1056B0000030CE000030CD000030CC00CB1F612B7D
:1056C000622B7A2B0030D0000030D1000030D200A5
:1056D0008030D3004808D0024908D13B4A08D23B69
:1056E0004B08D33B5308CB005208CA005108C900ED
:1056F0005008C800CF1F7D2B7E2B962B0030D0008A
:105700000030D1000030D2008030D3004C08D002ED
:105710004D08D13B4E08D23B4F08D33B5308CF0036
:105720005208CE005108CD005008CC008030CB0686
:105730008030CF064F084B02031DA82B4E084A02AB
:10574000031DA82B4D084902031DA82B4C08480235
:105750000318AB2BAC2BAE2B0310AF2B031408009C
:105760004001EE00ED01410166080319B82BB92B89
:10577000392C67080319BD2BBE2B392C6808031977
:10578000C22BC32B392C6708043E860001308700EA
:105790000030C03F0030C13F0030C23F0030C33F47
:1057A00067088600013087000030C03F0030C13FED
:1057B0000030C23F0030C33F6708083E860001301A
:1057C00087000030C03F0030C13F0030C23F003092
:1057D000C33F40016E0807390319EF2BF02B052C4E
:1057E00041016808B50066089D314E25AB31410185
:1057F0006708043E8600013087003508C03F360840
:10580000C13F3708C23F3808C33F40016E1C092C16
:105810000A2C1E2C41016808B50066088931C42194
:10582000AB31410167088600013087003508C03F71
:105830003608C13F3708C23F3808C33F40016E1DDC
:10584000222C232C3C2C41016808B50066089431B9
:105850000524AB3141016708083E8600013087000E
:105860003508C03F3608C13F3708C23F3808C33F3C
:105870003C2C4001ED01ED0340016D0808004001A2
:10588000AD0020080A3EAC002D0A840001308500DE
:105890000008A1002D088400013085002C08193E65
:1058A0008600023087000008C03F2108C13F2C0855
:1058B0001B3E8600023087002D08023E8400013026
:1058C0008500000881002D08033E86000130870016
:1058D0000108A100A201A11BA203A10EA20EF0309B
:1058E000A20521080F39A204F030A1052108A60065
:1058F0002208A7002D08043E860001308700010819
:105900000F39A100A2012108A4002208A500240843
:105910002604A10025082704A2002C081C3E8600AE
:10592000023087002108C03F2208C13F2D08053EF4
:105930008600013087000108A100A201A11BA2037B
:10594000A10EA20EF030A20521080F39A204F030FA
:10595000A1052108AA002208AB002D08043E8600FC
:10596000013087000108A1000430A136890BB52C55
:105970002108A200A3012208A8002308A9002808E2
:105980002A04A10029082B04A2002C081E3E860030
:10599000023087002108C03F2208C13F2C08203E6A
:1059A0008600023087002D08063E84000130850005
:1059B000000881000800B0310020AC31003A031922
:1059C000E22CE32CDB2C4301DF01E001A030860058
:1059D000013087003C304101D70000301E00D70B5A
:1059E000EE2C4301E101BE31EE26AC314301E20071
:1059F000DD01DD0A5F08031DFE2CFF2C062D0D3096
:105A000062060319042D052D062DDD015D08031D19
:105A10000A2D0C2D01300D2D0030DF00DE01DE0AD5
:105A20006008031D142D152D1C2D0A306206031964
:105A30001A2D1B2D1C2DDE015E08031D202D222D8D
:105A40000130232D0030E0000D3062060319292DAE
:105A50002A2D372D0A30620603192F2D302D372DB0
:105A60006108A03E860001308700620881005F085F
:105A700003193B2D3C2D422D60080319402D412D6B
:105A8000422D562DB0310020AC31003A0319492D7A
:105A90004A2D422D01304101D70057084301E1074B
:105AA0003C306102031C552D562DF32CB9304001BA
:105AB000A000B830A100A030A200B0316B20AC3102
:105AC0004001200821040319662D682D0130692D3D
:105AD00000304301DC005C084101D700D8015708C1
