:1000000080314928080028347E1480314101161EB1
:100010000A280B2813280C1E0E280F281328B83185
:10002000EA20803147280B1F162817284728981CDC
:100030001A281B2823288E1C1E281F282328BA3183
:100040008B2280314728971D262827282F288D1D91
:100050002A282B282F28BB312B23803147289A1C94
:10006000322833283B28901C362837283B28B931C2
:100070003621803147281A1C3E283F284728101C6B
:10008000422843284728B9313A21803147287E1039
:10009000090080314B28803103208031FD007E3003
:1000A0008400BA308500DB308600033087000D30D5
:1000B000B931A4218031F801F901FA01FB01FC01F9
:1000C0004501EC01ED01EE01EF015B3084000330EE
:1000D00085001530B9319E218031A0308400033075
:1000E00085003B30B9319E218031203084000430BE
:1000F00085001030B9319E218031A0308400043059
:1001000085005030B9319E21803120308400053087
:1001100085002E30B9319E218031A0308400053019
:1001200085003C30B9319E2180312030840006307A
:1001300085003C30B9319E218031A03084000630EA
:1001400085003C30B9319E21803120308400073059
:1001500085003C30B9319E218031A03084000730C9
:1001600085003C30B9319E2180317E104001A5319F
:10017000CA2D4101C1004630C900EA30C8006030D4
:10018000C7000030C6004730C500D630C400D830A4
:10019000C3000030C200C7304001AD007A30AC006F
:1001A0000030AB000030AA004030C9000030C80069
:1001B0000030C7000030C60041012D08213E8600F6
:1001C00003308700403FF400413FF500423FF60016
:1001D000433FF7000130AD311525803177084001EC
:1001E000CD007608CC007508CB007408CA00A23197
:1001F0001822803140014908B1004808B000470882
:10020000AF004608AE00A331C223803140012D0863
:100210004101D90040012C084101D80040012B08C0
:100220004101D70040012A084101D6005908400188
:10023000E300410158084001E20041015708400134
:10024000E100410156084001E00041015908400128
:10025000E700410158084001E6004101570840010C
:10026000E500410156084001E40091313D21803113
:10027000400163084101D100400162084101D00002
:10028000400161084101CF00400160084101CE00FA
:1002900047304001C9000030C8000030C7000030BE
:1002A000C60041012D08103E860003308700403F04
:1002B0004001ED00413FEE006D08F4006E08F500CE
:1002C000890D893B8909F600F7000130AD3115250C
:1002D000803177084001E3007608E2007508E1000C
:1002E0007408E000410151084001E7004101500855
:1002F0004001E60041014F084001E50041014E0880
:100300004001E40091313D21803140016308CD007E
:100310006208CC006108CB006008CA00A231182234
:100320008031400149084101CD00400148084101A8
:10033000CC00400147084101CB0040014608410183
:10034000CA0059084001E300410158084001E20099
:10035000410157084001E100410156084001E00019
:1003600041012D080E3E860003308700403F4001CA
:10037000ED00413FEE006D08F4006E08F500890DB8
:10038000893B8909F600F7000130AD311525803130
:1003900077084001E7007608E6007508E500740874
:1003A000E40091313D218031400163084101D100D9
:1003B000400162084101D000400161084101CF00C5
:1003C000400160084101CE004D084001AD004101EF
:1003D0004C084001AC0041014B084001AB00410119
:1003E0004A084001AA004030E3000030E20000303B
:1003F000E1000030E000410151084001E700410107
:1004000050084001E60041014F084001E50041016C
:100410004E084001E40091313D21803140016308E4
:10042000B1006208B0006108AF006008AE00A331FF
:10043000C223803140012D084101CD0040012C082C
:100440004101CC0040012B084101CB0040012A08AA
:100450004101CA0047304001E3008030E200003033
:10046000E1000030E00041012D080C3E8600033021
:100470008700403F4001ED00413FEE006D08F40071
:100480006E08F500890D893B8909F600F7000130F7
:10049000AD311525803177084001E7007608E60088
:1004A0007508E5007408E40091313D218031400178
:1004B0006308AD006208AC006108AB006008AA00E8
:1004C0004030C9008030C8000030C7000030C6008E
:1004D00041014D084001CD0041014C084001CC00D4
:1004E00041014B084001CB0041014A084001CA00CC
:1004F000A2311822803140014908B1004808B000FB
:100500004708AF004608AE00A331C2238031400146
:100510002D084101CD0040012C084101CC004001D3
:100520002B084101CB0040012A084101CA005908AB
:100530004001E300410158084001E2004101570831
:100540004001E100410156084001E00041012D0851
:100550000A3E860003308700403F4001ED00413FE6
:10056000EE006D08F4006E08F500890D893B8909DD
:10057000F600F7000130AD311525803177084001D4
:10058000E7007608E6007508E5007408E40091319C
:100590003D218031400163084101D10040016208E2
:1005A0004101D000400161084101CF0040016008D5
:1005B0004101CE0049304001C9000030C800003080
:1005C000C7000030C600410159084001E300410165
:1005D00058084001E200410157084001E100410193
:1005E00056084001E000410151084001E700410187
:1005F00050084001E60041014F084001E50041017B
:100600004E084001E40091313D21803140016308F2
:10061000CD006208CC006108CB006008CA00A2319E
:1006200018228031400149084101B40040014808C6
:100630004101B300400147084101B20040014608B2
:100640004101B10049304001C9000030C80000300C
:10065000C7000030C600410134084001AD0041012F
:1006600033084001AC00410132084001AB004101B8
:1006700031084001AA00410159084001E30041014D
:1006800058084001E200410157084001E1004101E2
:1006900056084001E00041012D08083E8600033065
:1006A0008700403F4001ED00413FEE006D08F4003F
:1006B0006E08F500890D893B8909F600F7000130C5
:1006C000AD311525803177084001E7007608E60056
:1006D0007508E5007408E40091313D218031400146
:1006E0006308B1006208B0006108AF006008AE00A6
:1006F000A331C223803140012D08CD002C08CC004D
:100700002B08CB002A08CA00A231182280314001F0
:1007100049084101D900400148084101D800400181
:1007200047084101D700400146084101D6002D0885
:10073000063E860003308700403F4001ED00413F08
:10074000EE006D08F4006E08F500F601F7010030C8
:10075000AD311525803177084001E3007608E200CD
:100760007508E1007408E0003F30AD008030AC0057
:100770000030AB000030AA004730C9000030C8008C
:100780000030C7000030C600410159084001CD00CB
:10079000410158084001CC00410157084001CB00FD
:1007A000410156084001CA00A2311822803140019F
:1007B0004908B1004808B0004708AF004608AE003D
:1007C000A331C223803140012D08E7002C08E60048
:1007D0002B08E5002A08E40091313D2180314001D9
:1007E00063084101D900400162084101D80040017D
:1007F00061084101D700400160084101D600003086
:100800004001A8000030A7000030A6000030A5007D
:10081000410159084001AC00410158084001AB00BA
:10082000410157084001AA00410156084001A900B2
:10083000AA31B522803103181E2C1F2CA92E41018C
:100840004108860001308700403FF400413FF50039
:10085000423FF600433FF7000030AD3115258031AF
:1008600077084001C1007608C0007508BF00740811
:10087000BE004930C5008030C4000030C3000030E5
:10088000C200BC3155248031400141084101D500EE
:10089000400140084101D40040013F084101D3001C
:1008A00040013E084101D20045304001E300C33021
:1008B000E2005030E1000030E0004530C9008030F7
:1008C000C8000030C7000030C60041014D0840019B
:1008D000CD0041014C084001CC0041014B084001D2
:1008E000CB0041014A084001CA00A23118228031E0
:1008F00040014908C1004808C0004708BF00460839
:10090000BE00410155084001C500410154084001A5
:10091000C400410153084001C30041015208400195
:10092000C200BC315524803140014108E700400835
:10093000E6003F08E5003E08E40091313D218031AA
:10094000400163084101B800400162084101B7005D
:10095000400161084101B600400160084101B50055
:1009600059084001C900410158084001C80041012F
:1009700057084001C700410156084001C600410127
:1009800038084001CD00410137084001CC00410149
:1009900036084001CB00410135084001CA00A231B0
:1009A00018228031400149084101D5004001480822
:1009B0004101D400400147084101D30040014608ED
:1009C0004101D20055084001E300410154084001B3
:1009D000E200410153084001E10041015208400199
:1009E000E00041012D08163E860003308700403F9D
:1009F0004001ED00413FEE006D08F4006E08F50087
:100A0000890D893B8909F600F7000130AD311525C4
:100A1000803177084001E7007608E6007508E500B8
:100A20007408E40091313D218031400163084101A7
:100A3000D100400162084101D0004001610841013C
:100A4000CF00400160084101CE004F304001C90095
:100A50000030C8000030C7000030C6004101550812
:100A60004001E300410154084001E2004101530804
:100A70004001E100410152084001E00041015108FC
:100A80004001E700410150084001E60041014F08E4
:100A90004001E50041014E084001E40091313D2153
:100AA000803140016308CD006208CC006108CB00B2
:100AB0006008CA00A2311822803140014908410172
:100AC000D900400148084101D800400147084101D0
:100AD000D700400146084101D60047304001C90017
:100AE0000030C8000030C7000030C6004101550882
:100AF0004001E300410154084001E2004101530874
:100B00004001E100410152084001E00041012D088F
:100B1000143E860003308700403F4001ED00413F16
:100B2000EE006D08F4006E08F500890D893B890917
:100B3000F600F7000130AD3115258031770840010E
:100B4000E7007608E6007508E5007408E4009131D6
:100B50003D21803140016308CD006208CC0061086E
:100B6000CB006008CA00A231182280314001490838
:100B70004101CD00400148084101CC004001470837
:100B80004101CB00400146084101CA004D08400127
:100B9000AD0041014C084001AC0041014B0840014F
:100BA000AB0041014A084001AA0041015908400137
:100BB000B100410158084001B0004101570840010F
:100BC000AF00410156084001AE00A331C22380317D
:100BD00040012D084101BC0040012C084101BB002F
:100BE00040012B084101BA0040012A084101B90027
:100BF00041304001C9008030C8000030C7000030DB
:100C0000C60041012D08123E860003308700403F98
:100C10004001ED00413FEE006D08F4006E08F50064
:100C2000890D893B8909F600F7000130AD311525A2
:100C3000803177084001AD007608AC007508AB0044
:100C40007408AA0041013C084001B10041013B0881
:100C50004001B00041013A084001AF0041013908AC
:100C60004001AE00A331C223803140012D08CD00E8
:100C70002C08CC002B08CB002A08CA00A23118226D
:100C80008031400149084101C0004001480841014C
:100C9000BF00400147084101BE0040014608410134
:100CA000BD0055084001AD00410154084001AC00B1
:100CB000410153084001AB00410152084001AA0024
:100CC000410140084001B10041013F084001B0002E
:100CD00041013E084001AF0041013D084001AE0026
:100CE000A331C223803140012D084101D5004001CC
:100CF0002C084101D40040012B084101D3004001E0
:100D00002A084101D20055084001A80041015408B9
:100D10004001A700410153084001A60041015208CB
:100D20004001A500410149084001AC0041014808CB
:100D30004001AB00410147084001AA0041014608BB
:100D40004001A900AA31B52280310318A82EA92E8E
:100D5000B32E41014908D5004808D4004708D30004
:100D60004608D200E32E410145084001A800410198
:100D700044084001A700410143084001A600410189
:100D800042084001A500410155084001AC00410165
:100D900054084001AB00410153084001AA00410141
:100DA00052084001A900AA31B52280310318D92E7A
:100DB000DA2EE32E41014508D5004408D40043084B
:100DC000D3004208D20041015508B0005408AF00DA
:100DD0005308AE005208AD000800F70074080A3E40
:100DE000F600770A840085010008F5007708840082
:100DF000850176088600013087000008C03F75082D
:100E0000C13F7708033E840085010008F50077089C
:100E1000023E840085017608023E8600013087008C
:100E20000008C03F7508C13F7708053E8400850172
:100E30000008F5007708043E840085017608043E2A
:100E40008600013087000008C03F7508C13F770861
:100E5000073E840085010008F5007708063E8400FF
:100E600085017608063E8600013087000008C03FF5
:100E70007508C13F7708093E840085010008F50028
:100E80007708083E840085017608083E8600013018
:100E900087000008C03F7508C13F77080B3E8400FB
:100EA00085010008F50077080A3E84008501760870
:100EB0000A3E8600013087000008C03F7508C13F28
:100EC00077080D3E840085010008F50077080C3E88
:100ED0008400850176080C3E8600013087000008FA
:100EE000C03F7508C13F77080F3E840085010008A8
:100EF000F50077080E3E8400850176080E3E8600D8
:100F0000013087000008C03F7508C13F7708113ED7
:100F1000840085010008F5007708103E84008501F3
:100F20007608103E8600013087000008C03F750833
:100F3000C13F7708133E840085010008F50077085B
:100F4000123E840085017608123E8600013087003B
:100F50000008C03F7508C13F7708153E8400850131
:100F60000008F5007708143E840085017608143ED9
:100F70008600013087000008C03F7508C13F770830
:100F8000173E840085010008F5007708163E8400AE
:100F900085017608163E8600013087000008C03FB4
:100FA0007508C13F7608183E860001308700770833
:100FB000193E84008501000881000800F71BEF2F0F
:100FC0007708031DEE2F7608031DEE2F7508031D0D
:100FD000EE2F013074020318EE2FEF2FFF2F74094C
:100FE000F4007509F5007609F6007709F700F40AB0
:100FF0000319F50A0319F60A0319F70AFF2F080067
:1010000074084C018D0008004101EC006C0840019F
:10101000E8000330E9000330BF31D02788314101B7
:10102000ED006D0803191528162818286D08652885
:1010300029304101EB009630EA007F30890B1E28F1
:10104000EA0B1E28EB0B1E28B931C6218831342843
:1010500005304101EB000F30EA00F130890B2E28FA
:10106000EA0B2E28EB0B2E2841016C08BC3118240A
:101070008831003A031D3D283E284628BA312222F5
:101080008831003A0319452846282828B9315621C5
:101090008831BA3122228831003A03195028512868
:1010A0005328A730652841016908E7006C08E8006B
:1010B0000730B431792488314101ED006D080319FE
:1010C0006228632864281628013008004101C20004
:1010D000D7013008DD002F08DC002E08DB002D08CA
:1010E000DA005D084001A80041015C084001A7004A
:1010F00041015B084001A60041015A084001A500DA
:101100000030AC000030AB000030AA000030A90075
:10111000AA31B522883103188E288F28A6284101CC
:10112000D701D70A5D08F7005C08F6005B08F500F8
:101130005A08F400BA313722883177084101DD00BE
:101140007608DC007508DB007408DA004101E00174
:10115000E101460169084101CA00460168084101F0
:10116000C90057080319B528B628C6285708031D13
:10117000BA28BB28C0282B30B6000030B700C428DE
:101180002D30B6000030B7003608D7005D08F700F4
:101190005C08F6005B08F5005A08F400A831A920A5
:1011A000883174037504031DD628D72810294101FE
:1011B00057080319DC28DD28E92857084901A00051
:1011C000FF304101C907FF30CA3D0130E000003067
:1011D000E100BB30F400B830F5006008A03EBC313F
:1011E00075248831FD304101C907FF30CA3DA03068
:1011F0004001AB0041014A084001AD0041014908EE
:101200004001AC0041014208B131FF218831400169
:101210002C084101AE0040012B084101AD00FF2F19
:1012200041015D08F7005C08F6005B08F5005A080C
:10123000F400A831A920883174087504031D212900
:1012400022295B2941015708031927292829342914
:1012500057084901A000FF304101C907FF30CA3DCE
:101260000130E0000030E100BF30F400B830F5009C
:101270006008A03EBC3175248831FD304101C907AA
:10128000FF30CA3DA0304001AB0041014A08400197
:10129000AD00410149084001AC0041014208B131B3
:1012A000FF21883140012C084101AE0040012B088C
:1012B0004101AD00FF2F3F304101E5008030E400E7
:1012C0000030E3000030E200DE01DF015D08400194
:1012D000A30041015C084001A20041015B084001FC
:1012E000A10041015A084001A0000030A7000030D1
:1012F000A6000030A5000030A400B2318C22883155
:10130000031883298429C02A922941014E08E50047
:101310004D08E4004C08E3004B08E2000130DE0712
:101320000030DF3D41304001E3002030E20000307A
:10133000E1000030E000410165084001E7004101A3
:1013400064084001E600410163084001E5004101F5
:1013500062084001E40091313D2188314001630879
:101360004101CE00400162084101CD004001610809
:101370004101CC00400160084101CB004B085A02FA
:10138000B2004C085B3BB3004D085C3BB4004E0818
:101390005D3BB5003508F7003408F6003308F5006A
:1013A0003208F4008731DE278831F71BE5297708FA
:1013B000031DE6297608031DE6297508031DE629A5
:1013C00002307402031CE529E629852941014E08F3
:1013D0004001A80041014D084001A70041014C080F
:1013E0004001A60041014B084001A50041015D08F4
:1013F0004001AC0041015C084001AB0041015B08C9
:101400004001AA0041015A084001A900AA31B522B1
:101410008831031C0C2A0D2A8529410162085A02D1
:10142000B20063085B3BB30064085C3BB400650832
:101430005D3BB5003508F7003408F6003308F500C9
:101440003208F4008731DE278831F71B362A770807
:10145000031D352A7608031D352A7508031D352A14
:10146000023074020318352A362A992A4101650888
:10147000DD006408DC006308DB006208DA00C02AD3
:1014800041304001C9002030C8000030C7000030A2
:10149000C600410165084001CD00410164084001DA
:1014A000CC00410163084001CB00410162084001CA
:1014B000CA00A23118228831400149084101E500E3
:1014C000400148084101E400400147084101E300B0
:1014D000400146084101E200FF30DE07FF30DF3DFA
:1014E00062085A02B20063085B3BB30064085C3BCD
:1014F000B40065085D3BB5003508F7003408F60018
:101500003308F5003208F4008731DE278831F71BF5
:10151000982A7708031D972A7608031D972A7508CD
:10152000031D972A023074020318972A982A992AD1
:10153000362A41015D084001A80041015C084001D4
:10154000A70041015B084001A60041015A08400183
:10155000A500410165084001AC004101640840015B
:10156000AB00410163084001AA004101620840014B
:10157000A900AA31B5228831031CBF2AC02A402AFB
:1015800041013108C8004808C70067304806031DFC
:10159000CA2ACB2AEE2A78087904031DD02AD12A38
:1015A000D52A0130F8000030F9007908803AB200FD
:1015B00080303202031DDE2A013078020318E12A4E
:1015C000E22AE82A06304101C5000030C600F32AAD
:1015D00079084101C6007808C500F32AF91BF12AF1
:1015E000F22AE22AE82A67304806031DF82AF92A77
:1015F000222B5F08803AB2007F303202031D022B9B
:10160000FC305E02031C052B062B1F2B41014508F5
:10161000FF3EB200FF30463DB3003308803AB400CD
:101620005F08803A3402031D172B5E083202031C48
:101630001A2B1B2B1F2B66304101C700222B653054
:101640004101C7004608C1004508C0006730480690
:10165000031D2B2B2C2B362B66304706031D312BFD
:10166000322B3A2BDF1F352B362B3A2B0130C0079C
:101670000030C13D66304706031D3F2B402B582BE1
:10168000DF1F432B442B4E2B3F30E5008030E4001E
:101690000030E3000030E200DE01DF016730480681
:1016A0000319532B542B582B5E08C0075F08C13D0C
:1016B000D801D9015D08D2005C08D1005B08D000D8
:1016C0005A08CF006508CE006408CD006308CC003E
:1016D0006208CB00422C410165084001C90041016C
:1016E00064084001C800410163084001C70041018E
:1016F00062084001C600410152084001CD0041018D
:1017000051084001CC00410150084001CB0041018B
:101710004F084001CA00A23118228831400149080F
:10172000E3004808E2004708E1004608E000A03175
:10173000D7208831400163084101D600400162088A
:101740004101D500400161084101D4004001600819
:101750004101D30056084001C10041015508400134
:10176000C000410154084001BF004101530840013D
:10177000BE00B7318F27883140013F084101C400C6
:1017800040013E084101C30065084001E7004101F6
:1017900064084001E600410163084001E5004101A1
:1017A00062084001E400410156084001E3004101A4
:1017B00055084001E200410154084001E1004101A7
:1017C00053084001E00091313D2188314001630818
:1017D000C1006208C0006108BF006008BE0041018E
:1017E00052084001C500410151084001C4004101B7
:1017F00050084001C30041014F084001C200BC3104
:1018000055248831400141084101D200400140087F
:101810004101D10040013F084101D00040013E0894
:101820004101CF0041304001C9002030C8000030E4
:10183000C7000030C600410165084001CD004101EC
:1018400064084001CC00410163084001CB00410124
:1018500062084001CA00A2311822883140014908BB
:101860004101E500400148084101E400400147080A
:101870004101E300400146084101E2000130D80780
:101880000030D93D5908803AB2004108803A32020E
:10189000031D4C2C40085802031C4F2C502C6B2B62
:1018A00040304001E300A030E2000030E1000030B1
:1018B000E000410165084001E70041016408400182
:1018C000E600410163084001E50041016208400172
:1018D000E40091313D218831400163084101D60087
:1018E000400162084101D500400161084101D40076
:1018F000400160084101D30052084001A8004101A5
:1019000051084001A700410150084001A6004101D3
:101910004F084001A500410156084001AC004101BB
:1019200055084001AB00410154084001AA004101A3
:1019300053084001A900AA31B52288310318A12C0F
:10194000A22CAC2C00304101D6000030D500003074
:10195000D4000030D300E02C410152084001A30024
:10196000410151084001A200410150084001A1007D
:1019700041014F084001A000410156084001A70065
:10198000410155084001A600410154084001A5004D
:10199000410153084001A400B2318C228831031C5C
:1019A000D22CD32CE02C41014318D72CD82CE02C7E
:1019B0000030D6000030D5000030D4000030D30015
:1019C000410156084001AD00410155084001AC00FD
:1019D000410154084001AB00410153084001AA00F5
:1019E00041015D084001B10041015C084001B000C7
:1019F00041015B084001AF0041015A084001AE00BF
:101A0000A331C223883140012D084101D200400199
:101A10002C084101D10040012B084101D0004001B8
:101A20002A084101CF0052084001A8004101510895
:101A30004001A700410150084001A60041014F08A4
:101A40004001A5004130E3002030E2000030E10019
:101A50000030E00041014E084001E70041014D081F
:101A60004001E60041014C084001E50041014B08FE
:101A70004001E40091313D21883140016308AC0010
:101A80006208AB006108AA006008A900AA31B5226B
:101A90008831031C4C2D4D2D882D01304101DE076E
:101AA0000030DF3D41304001E3002030E2000030F3
:101AB000E1000030E00041014E084001E700410133
:101AC0004D084001E60041014C084001E50041019C
:101AD0004B084001E40091313D2188314001630809
:101AE0004101CE00400162084101CD004001610882
:101AF0004101CC00400160084101CB00663047063F
:101B0000031D832D842D882D0130C0070030C13D79
:101B100041014E08E5004D08E4004C08E3004B0885
:101B2000E200653047060319962D972D9C2D5F081E
:101B3000BF005E08BE009E2DBE01BF01BA01BC0100
:101B4000BD01D801D901012F410165084001C9003B
:101B5000410164084001C800410163084001C70019
:101B6000410162084001C600410152084001CD0018
:101B7000410151084001CC00410150084001CB0017
:101B800041014F084001CA00A231182288314001AA
:101B90004908E3004808E2004708E1004608E00081
:101BA000A031D7208831400163084101D6004001AF
:101BB00062084101D500400161084101D4004001A3
:101BC00060084101D30056084001C1004101550899
:101BD0004001C000410154084001BF0041015308C9
:101BE0004001BE00B7318F27883140013F08803A5D
:101BF0004101B20080303202031D012E0A30400143
:101C00003E020318042E052E212E410156084001E4
:101C1000C100410155084001C00041015408400184
:101C2000BF00410153084001BE00B7318F27883102
:101C300040013F084101C40040013E084101C3008A
:101C4000262E09304101C3000030C400430844047B
:101C5000031D2B2E2C2E3B2E67304806031D312EE4
:101C6000322E3B2EBF1F352E362E3B2E0130BC07A9
:101C70000030BD3D7F2E3A08031D3F2E402E692EB9
:101C8000BF1F432E442E692E6008A03E86000430FC
:101C900087002E3081000130E0070030E13DFF3049
:101CA000C907FF30CA3DBA01BA0A692E6008A03ED2
:101CB000860004308700303081000130E0070030BA
:101CC000E13DFF30C907FF30CA3DFF30BC07FF30A0
:101CD000BD3D3C083D04031D6E2E6F2E562E600840
:101CE000A03E8600043087004308303E810001306A
:101CF000E0070030E13DFF30C907FF30CA3D65080D
:101D00004001E700410164084001E6004101630829
:101D10004001E500410162084001E400410156082C
:101D20004001E300410155084001E200410154082F
:101D30004001E100410153084001E00091313D21A3
:101D4000883140016308C1006208C0006108BF001B
:101D50006008BE00410152084001C5004101510820
:101D60004001C400410150084001C30041014F0837
:101D70004001C200BC315524883140014108410175
:101D8000D200400140084101D10040013F0841011B
:101D9000D00040013E084101CF0041304001C90060
:101DA0002030C8000030C7000030C600410165087F
:101DB0004001CD00410164084001CC0041016308AD
:101DC0004001CB00410162084001CA00A231182243
:101DD0008831400149084101E500400148084101BE
:101DE000E400400147084101E30040014608410189
:101DF000E200FF30BE07FF30BF3D0130D8070030A2
:101E0000D93D5908803AB2004108803A3202031D98
:101E10000B2F4008580203180E2F0F2F1D2F4101C2
:101E20006108803AB20080303202031D192F4B3016
:101E30006002031C1C2F1D2FA42D4F304101D80020
:101E40000030D9005808A03E860004308700810188
:101E500065304706031D2D2F2E2FB02FBB01DF1F2E
:101E6000322F332F3A2FBB01BB0ADE09DF09DE0A0E
:101E70000319DF0A0230C5000030C600702FFF30A2
:101E80004101D807FF30D93D5808A03E86000430F4
:101E900087000A30F4000030F5005F08F7005E08A4
:101EA000F600B331CB2388317408303E81000A300C
:101EB000F4000030F50041015F08F7005E08F6000D
:101EC000B5318D25883175084101DF007408DE00C9
:101ED000FF30C507FF30C63DFF30C907FF30CA3DA0
:101EE0005E085F04031D752F762F3F2F4608803A4A
:101EF000B20080303202031D7F2F013045020318EB
:101F0000822F832F3F2FFF304101D807FF30D93D6B
:101F10003B08031D8C2F8D2F922F2B30B8000030E3
:101F2000B900962F2D30B8000030B9005808A03EF7
:101F300086000430870038088100FF30C907FF3071
:101F4000CA3DFF30D807FF30D93D5808A03E860073
:101F50000430870065308100FF30C907FF30CA3D7B
:101F6000A030F4006108F6006008F500A030B2006F
:101F7000600832025807BD318F2588314101600861
:101F80005802E0006108593BE1005708031DC92FC2
:101F9000CB2F0130CC2F0030B200B3013208D80073
:101FA0003308D90057080319D62FD72FE22FFF3057
:101FB000E007FF30E13D6008A03E86000430870066
:101FC000570881005808C9025908CA3B6008A03E5A
:101FD0004001AB0041014A084001AD004101490800
:101FE0004001AC0041014208B131FF21883140017C
:101FF0002C084101AE0040012B084101AD00080052
:10200000B931BF219031003A03190728092801305E
:102010000A28003008004101BD0040014D08031DA1
:102020001D284C08031D1D284B08031D1D280B30BF
:102030004A02031C1C281D28262800304001CD0020
:102040000030CC000030CB000A30CA0040014F08FD
:10205000F5004E08F400BF31412790314101B8002E
:102060003808031D3428352837293D080319392835
:102070003A2837294001490803193F2840283729C1
:102080004D084C044B044A040319472848283329B7
:1020900049088600870101084101A00040014E085F
:1020A00086004F0887004131010303195828592839
:1020B000982800304101BC000030BB000030BA005D
:1020C0000030B9007E2839083D074001D000500893
:1020D00086008701410139083D074001D1005108C0
:1020E0008400850100087F39810001304101B90772
:1020F0000030BA3D0030BB3D0030BC3D40014D08D2
:1021000041013C02031D942840014C0841013B025F
:10211000031D942840014B0841013A02031D9428F5
:1021200040014A0841013902031C97289828632876
:1021300040014D08031DA8284C08031DA8284B0882
:10214000031DA82802304A02031CA728A828DE285D
:10215000A0304001A0004908A1004D08A5004C088E
:10216000A4004B08A3004A08A20041013D08B13178
:102170007921903140014A08D0004B08D1004C0829
:10218000D2004D08D3000130D035D10DD20DD30D82
:10219000890BC428FF3050074101B400FF304001D3
:1021A000513D4101B500FF304001523D4101B600B3
:1021B000FF304001533D4101B700EE2840014D087A
:1021C0004101B70040014C084101B60040014B08F5
:1021D0004101B50040014A084101B4003D088600B4
:1021E000870101084001A500A030A6004101370881
:1021F0004001AA00410136084001A900410135080B
:102200004001A800410134084001A7004E088600A3
:102210004F08870042310108AB004E0886004F0886
:1022200087004631413F8A00403F0A00913140011A
:10223000D0004E08033ED10000304F3DD20051087F
:10224000860052088700500881004E0886004F081B
:1022500087004331010803192E292F293A29FE301E
:102260004101B8003A29FD304101B8003A29410145
:10227000B801B803410138080800400163088039FB
:102280004101A000400163354101A6004001E21F69
:102290004A294B294D2941012614410126080319D9
:1022A000522953296429260A031D572958296129CF
:1022B00000304001E3000030E2000030E100003077
:1022C000E0004001E2176D2900304001E3000030DA
:1022D000E2000030E1000030E00067088039E800EB
:1022E00068084101A006400167354101A100400195
:1022F000E61F7B297C297E29410121144101210807
:102300000319832984299529210A031D88298929EC
:10231000922900304001E7000030E6000030E5007F
:102320000030E4004001E6179E2900304001E7003C
:102330000030E6000030E5000030E40041012108F3
:102340000319A329A429A9292608031DA829A92915
:10235000B32900304001E3000030E2000030E1002A
:102360000030E000042C40016008F4006608BD3134
:102370002125913175084101AC007408AB002B0890
:102380004001E800E901EA01EB016B084101A50009
:1023900040016A084101A400400169084101A3000D
:1023A000400168084101A2002C084001E800E90151
:1023B000EA01EB016B084101AA0040016A084101F2
:1023C000A900400169084101A800400168084101D5
:1023D000A70040016108F4006508BD312125913155
:1023E00075084101AC007408AB002B084001E800FF
:1023F000E901EA01EB0168084101A207400169080F
:102400004101A33D40016A084101A43D40016B0820
:102410004101A53D2C084001E800E901EA01EB017A
:1024200068084101A707400169084101A83D400132
:102430006A084101A93D40016B084101AA3D4001E4
:102440006208F4006408BD3121259131750841010D
:10245000AC007408AB002B084001E800E901EA0178
:10246000EB0168084101A207400169084101A33D51
:1024700040016A084101A43D40016B084101A53DAE
:102480002C084001E800E901EA01EB01680841017C
:10249000A707400169084101A83D40016A084101C0
:1024A000A93D40016B084101AA3D0830A235A30DAA
:1024B000A40DA50D890B562A40016108F40064089B
:1024C000BD312125913175084101AC007408AB0084
:1024D0002B08A2072C08A33D0030A43DA53D4001D8
:1024E0006008F4006508BD3121259131750841016E
:1024F000AC007408AB002B08A2072C08A33D0030E9
:10250000A43DA53D0830A235A30DA40DA50D890B52
:10251000832A40016008F4006408BD31212591310F
:1025200075084101AC007408AB002B08A2072C0809
:10253000A33D0030A43DA53D40016108F4006608BC
:10254000BD312125913175084101AC007408AB0003
:102550002B08A7072C08A83D0030A93DAA3D400143
:102560006208F4006508BD312125913175084101EB
:10257000AC007408AB002B08A7072C08A83D00305E
:10258000A93DAA3D40016208F4006608BD3121253D
:10259000913175084101AC007408AB002B08400173
:1025A000E80041012C084001E900EA01EB01083094
:1025B000E835E90DEA0DEB0D890BD82A68084101D1
:1025C000A707400169084101A83D40016A0841018F
:1025D000A93D40016B084101AA3D22084001E800E5
:1025E000410123084001E900410124084001EA00BB
:1025F000410125084001EB001830EB36EA0CE90CEC
:10260000E80C890BFD2A68084101A7074001690809
:102610004101A83D40016A084101A93D40016B0804
:102620004101AA3D0830A235A30DA40DA50D890BCB
:10263000132B260821074001E800E901E90D68088D
:10264000823E4101AB00FF304001693D4101AC00D9
:10265000402B0130A735A80DA90DAA0D890B2A2BF7
:10266000A51F332B342B352B27140130A235A30D96
:10267000A40DA50D890B362BFF30AB07FF30AC3D09
:10268000A91F432B442B292BA101A51F482B492B04
:102690006E2BFF3022054001E800FF304101230589
:1026A0004001E900FF30410124054001EA007F308C
:1026B000410125054001EB006B086A0469046804C8
:1026C0000319632B642B682B4101A101A10A6E2B16
:1026D0004101271C6C2B6D2B6E2B642B21080319D9
:1026E000722B732BA92B0130A7070030A83D0030B7
:1026F000A93D0030AA3D2A1C7E2B7F2BA92B270841
:102700004001E800410128084001E9004101290891
:102710004001EA0041012A084001EB000130EC00D1
:10272000EB37EA0CE90CE80CEC0B902B6B08410141
:10273000AA0040016A084101A9004001690841015D
:10274000A800400168084101A7000130AB07003034
:10275000AC3D2C08803A4001E80080306802031D3F
:10276000B42BFF3041012B02031CB72BB82BC22B1B
:102770007F304101AA008030A9000030A80000305D
:10278000A700EF2B41012C08803A4001E80080307F
:102790006802031DCE2B013041012B020318D12BFF
:1027A000D22BDD2B00304101AA000030A9000030FF
:1027B000A8000030A700A001EF2B41012B08A600C4
:1027C000FF30A705FF30A8057F30A9050030AA0516
:1027D000261CEB2BEC2BED2BA9172636AA00200884
:1027E0004001E80068084101AA042A084001E3000A
:1027F000410129084001E200410128084001E100AF
:10280000410127084001E00008004101C5000030F7
:10281000C9000030C8000030C7000030C600423098
:10282000CD00C830CC000030CB000030CA00C7302B
:102830004001AD009630AC000030AB000030AA0083
:1028400041012D08213E860003308700403FF400FF
:10285000413FF500423FF600433FF7000130AD3104
:102860001525943177084001B1007608B00075084D
:10287000AF007408AE00A331C223943140012D088B
:102880004101D50040012C084101D40040012B0832
:102890004101D30040012A084101D20055084001FE
:1028A000E300410154084001E200410153084001A6
:1028B000E100410152084001E0004630C90080308B
:1028C000C8000030C7000030C60041012D081E3E80
:1028D000860003308700403FB100413FB20031081D
:1028E000F4003208F500890D893B8909F600F700EC
:1028F0000130AD311525943177084001CD007608BF
:10290000CC007508CB007408CA00A231182294319B
:1029100040014908E7004808E6004708E500460886
:10292000E40091313D21943140016308AD0062081B
:10293000AC006108AB006008AA004230E3008030C0
:10294000E2000030E1000030E00041012D081C3EB3
:10295000860003308700403FB300413FB400330896
:10296000F4003408F500890D893B8909F600F70069
:102970000130AD311525943177084001E700760824
:10298000E6007508E5007408E40091313D219431BA
:1029900040016308B1006208B0006108AF00600840
:1029A000AE00A331C223943140012D084101B8008B
:1029B00040012C084101B70040012B084101B6003D
:1029C00040012A084101B50038084001C100410119
:1029D00037084001C000410136084001BF004101F5
:1029E00035084001BE0041014508083E860001301F
:1029F0008700403FF400413FF500423FF600433F6F
:102A0000F7000030AD311525943177084001C5003D
:102A10007608C4007508C3007408C200BC31552490
:102A20009431400141084101BC004001400841018E
:102A3000BB0040013F084101BA0040013E0841018E
:102A4000B90047304001C9008030C8000030C700DD
:102A50000030C60041012D08193E86000330870072
:102A6000403FB100413FB2003108F4003208F500A8
:102A7000890D893B8909F600F7000130AD31152534
:102A8000943177084001CD007608CC007508CB0062
:102A90007408CA00A231182294314001490841014A
:102AA000C000400148084101BF0040014708410102
:102AB000BE00400146084101BD003F304001AD006D
:102AC0008030AC000030AB000030AA004101550856
:102AD0004001E300410154084001E2004101530874
:102AE0004001E100410152084001E0004C30C900C2
:102AF0008030C8000030C7000030C60041012D08FA
:102B00001B3E8600033087000108B100B201B3010B
:102B1000B4013408F7003308F6003208F500310834
:102B2000F4000030AD311525943177084001CD0017
:102B30007608CC007508CB007408CA00A2311822B0
:102B4000943140014908E7004808E6004708E500DD
:102B50004608E40091313D21943140016308B10001
:102B60006208B0006108AF006008AE00A331C22364
:102B7000943140012D084101D10040012C08410150
:102B8000D00040012B084101CF0040012A0841013B
:102B9000CE0055084001E300410154084001E20025
:102BA000410153084001E100410152084001E000A9
:102BB0004C30C9008030C8000030C7000030C6006B
:102BC00041012D08203E8600033087000108F400F3
:102BD0008039031DFF30F500F600F7000130AD31FC
:102BE0001525943177084001CD007608CC00750892
:102BF000CB007408CA00A231182294314001490860
:102C0000E7004808E6004708E5004608E40091317F
:102C10003D219431400163084101E1004001620817
:102C20004101E000400161084101DF00400160080E
:102C30004101DE003F304001AD008030AC0000308B
:102C4000AB000030AA00410151084001E3004101FE
:102C500050084001E20041014F084001E1004101FC
:102C60004E084001E000410161084001E7004101D8
:102C700060084001E60041015F084001E5004101B4
:102C80005E084001E40091313D2194314001630828
:102C9000B1006208B0006108AF006008AE00A33167
:102CA000C223943140012D084101D90040012C0874
:102CB0004101D80040012B084101D70040012A08FA
:102CC0004101D60059084001E30041015808400184
:102CD000E200410157084001E1004101560840016E
:102CE000E000410151084001E70041015008400166
:102CF000E60041014F084001E50041014E08400156
:102D0000E40091313D219431400163084101E1002B
:102D1000400162084101E000400161084101DF001B
:102D2000400160084101DE0040084001E30041012C
:102D30003F084001E20041013E084001E10041013D
:102D40003D084001E00041013C084001E70041012D
:102D50003B084001E60041013A084001E50041011D
:102D600039084001E40091313D219431400163086C
:102D70004101C400400162084101C30040016108F3
:102D80004101C200400160084101C10061084001E9
:102D9000E300410160084001E20041015F08400199
:102DA000E10041015E084001E000410144084001AA
:102DB000E700410143084001E600410142084001AB
:102DC000E500410141084001E40091313D21943189
:102DD000400163084101D900400162084101D80067
:102DE000400161084101D700400160084101D6005F
:102DF00049304001C9000030C8000030C700003031
:102E0000C600410159084001E30041015808400152
:102E1000E200410157084001E1004101560840012C
:102E2000E00041012D08183E8600033087000108AC
:102E3000B100B201B301B4013408F7003308F60061
:102E40003208F5003108F4000030AD311525943119
:102E500077084001E7007608E6007508E500740889
:102E6000E40091313D21943140016308CD006208B6
:102E7000CC006108CB006008CA00A231182294314E
:102E800040014908C1004808C0004708BF00460883
:102E9000BE003F30C5008030C4000030C3000030A9
:102EA000C200BC3155249431400141084101E10088
:102EB000400140084101E00040013F084101DF00BE
:102EC00040013E084101DE0059084001E300410194
:102ED00058084001E200410157084001E10041016A
:102EE00056084001E000410161084001E70041014E
:102EF00060084001E60041015F084001E500410132
:102F00005E084001E40091313D21943140016308A5
:102F10004101DD00400162084101DC00400161081F
:102F20004101DB00400160084101DA004D08400129
:102F3000A80041014C084001A70041014B08400195
:102F4000A60041014A084001A50041015D08400179
:102F5000AC0041015C084001AB0041015B0840014D
:102F6000AA0041015A084001A900AA31B5229431B2
:102F70000318BB2FBC2FC62F41014D08DD004C08A4
:102F8000DC004B08DB004A08DA00F62F41015D083F
:102F90004001A80041015C084001A70041015B0815
:102FA0004001A60041015A084001A500410149081D
:102FB0004001AC00410148084001AB004101470815
:102FC0004001AA00410146084001A900AA31B522EA
:102FD00094310318EC2FED2FF62F41014908DD0045
:102FE0004808DC004708DB004608DA0041015D08BC
:102FF000B0005C08AF005B08AE005A08AD000800E6
:10300000F2304001DB005408860055088700423149
:1030100001080739D8005830C9000030CD00003011
:10302000CC000030CB000130CA005708CF00560852
:10303000CE005B3090310B2098314001DA005A0805
:10304000031D232824285528F430DB005930B30011
:103050000030B4000030B8000030B7000030B600D7
:103060000130B5005708BA005608B9005B08B53101
:10307000ED2598314001DA005A08031D4028412807
:1030800055285930C9000030CD000030CC00003048
:10309000CB000130CA005708CF005608CE005B3085
:1030A00090310B2098314001DA005A0808004201A3
:1030B000A70040016D0886008701403F4101E600FE
:1030C000413FE70066088400670885001200253A42
:1030D000031D6B286C28A92A40016D088600870112
:1030E0000130810741310318810A4601E801E901F5
:1030F00003100030031801304501EE00FF30F800E6
:10310000FF30F90040016D0886008701403F420111
:10311000A800413FA9002808840029088500120062
:10312000643A0319942895289F28280884002908C0
:1031300085001200693A031D9E289F28DE28400161
:103140006E0886000130870001084101E600023068
:10315000810741310108E70000300318810A810727
:103160006608860067088700403F4201A200413F91
:10317000A3002808013E4101E60000304201293D3C
:103180004101E70040016D088600870141016608A2
:10319000C03F6708C13F420123084001B50042011A
:1031A00022084001B40042012708A03112209831C2
:1031B00040013508EE003408ED00CD2A28088400CF
:1031C0002908850012006E3A031DE728E828212906
:1031D00040016E0886000130870001084101E600C9
:1031E0000230810741310108E70000300318810AED
:1031F00081076608860067088700403FE800413F76
:10320000E900680886006908870047014908C03F4F
:103210004A08C13F42012808013E4101E600003052
:103220004201293D4101E70040016D088600870108
:1032300041016608C03F6708C13F4001ED01EE0152
:10324000CD2A40016D0886008701403F4101E6001C
:10325000413FE70066088400670885001200733A62
:103260000319332934294E2940016D08860087014E
:10327000403FA000413FA100C330A200B830A300EE
:103280000330A4000030A500B5313025983140014D
:1032900020082104031D4D294E299C2940016D0859
:1032A00086008701403F4101E600413FE700660894
:1032B0008400670885001200733A031960296129A8
:1032C000672903304201A0000030A1006C290130C1
:1032D0004201A0000030A10040016D088600870176
:1032E00042012008810741312108813D7F314001A1
:1032F0006E0886000130870001084101E6000230B7
:10330000810741310108E70000300318810A810775
:103310006608860067088700403F4001A500413FDE
:10332000A60042012708AC317224983140012608DA
:10333000EE002508ED00CD2A6D0886008701403F8C
:103340004201A800413FA9002808840029088500FF
:103350000008A600B82901304201A8070030A93DA5
:10336000CC296C304201A600CC294201A601CC290F
:1033700026084101E600E7016708003A0319C12960
:10338000B52966084C3A0319AB292B3A0319B12920
:103390000B3A0319AB29B5292808840029088500B0
:1033A0001200673A031DD529D629732A152A400130
:1033B0006E0886000130870001084101E6000430F4
:1033C000810741310108E70000300318810A8107B5
:1033D0006608860067088700403F4201A200413F1F
:1033E000A300423FA400433FA500262A40016E08E7
:1033F00086000130870001084101E60004308107A2
:1034000041310108E70000300318810A810766088E
:10341000860067088700403F4201A200413FA300A9
:10342000423FA400433FA500262A26084101E600AA
:10343000E7016708003A03191E2A262A66084C3A53
:103440000319F629203A0319D729262A4201280808
:10345000013E4101E60000304201293D4101E70003
:1034600040016D088600870141016608C03F67087A
:10347000C13F602A420125084101B00042012408F1
:103480004101AF00420123084101AE004201220880
:103490004101AD0042012808840029088500000888
:1034A0004101B1004201270888316620983141016D
:1034B0002E084001EE0041012D084001ED00CD2A0B
:1034C0004201280884002908850000084101E6001F
:1034D000E7016708003A03196E2A732A6608673AFB
:1034E00003193A2A732A40016D0886008701403F7C
:1034F0004101E600413FE700660884006708850057
:103500001200253A031D852A862A9F2A40016D084C
:10351000860087010130810741310318810A253077
:10352000F4000030F50042012708F600B431D3243E
:10353000983101304001ED000030EE00CD2A40010D
:103540006D08860087010130810741310318810A27
:103550001D2940016D0886008701403F4101E600BA
:10356000413FE70066088400670885000008E8001E
:10357000E9016808F4006908F50042012708F6002F
:10358000B431D324983140016D08860087010130A1
:10359000810741310318810A992A08004701400830
:1035A0004101C20047013F084101C10047013E08F7
:1035B0004101C00047013D084101BF003008C20081
:1035C0002F08C1002E08C0002D08BF003F08B10021
:1035D0004008B2004108B3004208B4001730B436C6
:1035E000B30CB20CB10C890BEF2AFF303105B900D6
:1035F00000303205BA003A08803AB100803031021A
:10360000031D042B96303902031C072B082B092BB2
:103610005F2D41013F08B1004008B2004108B300EE
:103620004208B4001F30B436B30CB20CB10C890B95
:10363000132B34083304320431040319202B212BBB
:10364000352B3008F7002F08F6002E08F5002D085E
:10365000F400BA3137229A3177084101B000760878
:10366000AF007508AE007408AD003A08803AB100AA
:1036700080303102031D3E2B7E3039020318412B6E
:10368000422B6F2B00304001E3000030E20000309D
:10369000E1000030E000410142084001E700410143
:1036A00041084001E600410140084001E5004101B8
:1036B0003F084001E40091313D219A314001630807
:1036C0004101B000400162084101AF0040016108C2
:1036D0004101AE00400160084101AD005F2D4B305B
:1036E0004001AD000030AC000030AB000030AA005B
:1036F000410130084001B10041012F084001B000F4
:1037000041012E084001AF0041012D084001AE00EB
:10371000A331C2239A3140012D084101BE0040016E
:103720002C084101BD0040012B084101BC004001B3
:103730002A084101BB00CB304001AD000030AC0095
:103740000030AB000030AA0041013E084001B1004A
:1037500041013D084001B00041013C084001AF007B
:1037600041013B084001AE00A331C2239A31400120
:103770002D084101B80040012C084101B70040016B
:103780002B084101B60040012A084101B50030086C
:103790004001C10041012F084001C00041012E0835
:1037A0004001BF0041012D084001BE004101380821
:1037B0004001C500410137084001C40041013608FD
:1037C0004001C300410135084001C200BC3155240D
:1037D0009A31400141084101C600400140084101C1
:1037E000C50040013F084101C40040013E084101BD
:1037F000C3003F304001A8000030A7000030A60001
:103800000030A500410146084001AC0041014508D7
:103810004001AB00410144084001AA0041014308B6
:103820004001A900AA31B5229A310318182C192C8D
:10383000792C410130084001AD0041012F084001C1
:10384000AC0041012E084001AB0041012D084001B0
:10385000AA00410146084001B1004101450840016C
:10386000B000410144084001AF004101430840015C
:10387000AE00A331C2239A3140012D084101BE00A0
:1038800040012C084101BD0040012B084101BC0052
:1038900040012A084101BB00BF304001AD0080302B
:1038A000AC000030AB000030AA0041013E084001EE
:1038B000B10041013D084001B00041013C08400118
:1038C000AF0041013B084001AE00A331C2239A3151
:1038D00040012D084101C60040012C084101C500EE
:1038E00040012B084101C40040012A084101C300E6
:1038F0002C2DBF304001A8000030A7000030A600EA
:103900000030A500410146084001AC0041014508D6
:103910004001AB00410144084001AA0041014308B5
:103920004001A900AA31B5229A31031C982C992C88
:10393000F92C410130084001AD0041012F08400140
:10394000AC0041012E084001AB0041012D084001AF
:10395000AA00410146084001B1004101450840016B
:10396000B000410144084001AF004101430840015B
:10397000AE00A331C2239A3140012D084101BE009F
:1039800040012C084101BD0040012B084101BC0051
:1039900040012A084101BB003F304001AD008030AA
:1039A000AC000030AB000030AA0041013E084001ED
:1039B000B10041013D084001B00041013C08400117
:1039C000AF0041013B084001AE00A331C2239A3150
:1039D00040012D084101C60040012C084101C500ED
:1039E00040012B084101C40040012A084101C300E5
:1039F0002C2D410130084001AD0041012F0840014C
:103A0000AC0041012E084001AB0041012D084001EE
:103A1000AA00410146084001B100410145084001AA
:103A2000B000410144084001AF004101430840019A
:103A3000AE00A331C2239A3140012D084101C600D6
:103A400040012C084101C50040012B084101C40080
:103A500040012A084101C3003F08B1004008B200FC
:103A60004108B3004208B4001F30B436B30CB20CA6
:103A7000B10C890B352D3408330432043104031999
:103A8000422D432D572D4608F7004508F6004408FF
:103A9000F5004308F400BA3137229A317708410122
:103AA000C6007608C5007508C4007408C30046083F
:103AB000B0004508AF004408AE004308AD00080060
:103AC0004101BD00C230B8002030B7000030B60060
:103AD0000030B5004230BC00AA30BB000030BA0054
:103AE0000030B90044304001C9008030C8000030C7
:103AF000C7000030C60041012D0886000330870052
:103B0000403F4001ED00413FEE006D08F4006E08BB
:103B1000F500F601F7010030AD3115259D3177082C
:103B20004001CD007608CC007508CB007408CA00AF
:103B3000A23118229D3140014908C1004808C00047
:103B40004708BF004608BE004630C9008030C800A4
:103B50000030C7000030C60041013D08043E860029
:103B600001308700403FF400413FF500423FF6003E
:103B7000433FF7000030AD3115259D3177084001F6
:103B8000CD007608CC007508CB007408CA00A231BD
:103B900018229D3140014908C5004808C400470863
:103BA000C3004608C200BC3155249D314001410884
:103BB0004101C100400140084101C00040013F08EF
:103BC0004101BF0040013E084101BE0041084001E3
:103BD000E300410140084001E20041013F0840018B
:103BE000E10041013E084001E00041012D08023E94
:103BF000860003308700403F4001ED00413FEE006A
:103C00006D08F4006E08F500890D893B8909F600FE
:103C1000F7000130AD3115259D3177084001E700EF
:103C20007608E6007508E5007408E40091313D214E
:103C30009D31400163084101C1004001620841011A
:103C4000C000400161084101BF004001600841011E
:103C5000BE0046304001C9000030C8000030C70037
:103C60000030C60041012D08860003308700403F28
:103C70004001ED00413FEE006D08F4006E08F500D4
:103C8000F601F7010030AD3115259D31770840016F
:103C9000CD007608CC007508CB007408CA00A231AC
:103CA00018229D3140014908C1004808C00047085A
:103CB000BF004608BE004830C9000030C8000030D0
:103CC000C7000030C60041013D08043E86000130B7
:103CD0008700403FF400413FF500423FF600433F7C
:103CE000F7000030AD3115259D3177084001CD003A
:103CF0007608CC007508CB007408CA00A2311822DF
:103D00009D3140014908C5004808C4004708C30068
:103D10004608C200BC3155249D3140014108410193
:103D2000C900400140084101C80040013F0841016D
:103D3000C70040013E084101C60049084001E300B8
:103D4000410148084001E200410147084001E1000B
:103D5000410146084001E000410149084001E700F7
:103D6000410148084001E600410147084001E500E3
:103D7000410146084001E40091313D219D3140015F
:103D800063084101B400400162084101B3004001F1
:103D900061084101B200400160084101B1002D08F5
:103DA000043E860003308700403F4001ED00413F64
:103DB000EE006D08F4006E08F500890D893B890955
:103DC000F600F7000130AD3115259D31770840012F
:103DD000E3007608E2007508E1007408E0004101A4
:103DE00034084001E700410133084001E600410189
:103DF00032084001E500410131084001E400913101
:103E00003D219D31400163084101C9004001620824
:103E10004101C800400161084101C700400160083C
:103E20004101C60041084001B10041014008400184
:103E3000B00041013F084001AF0041013E08400190
:103E4000AE00410149084001AD0041014808400170
:103E5000AC00410147084001AB0041014608400168
:103E6000AA00A331C2239D3140012D08C1002C08B6
:103E7000C0002B08BF002A08BE00B7318F279D3134
:103E800041012D08213E86000330870040013E0895
:103E9000C03F3F08C13F4008C23F4108C33F4530D3
:103EA000C900A030C8000030C7000030C600410182
:103EB00049084001AD00410148084001AC00410102
:103EC00047084001AB00410146084001AA004101FA
:103ED00041084001B100410140084001B0004101EA
:103EE0003F084001AF0041013E084001AE00A33150
:103EF000C2239D3140012D08CD002C08CC002B0899
:103F0000CB002A08CA00A23118229D31400149087D
:103F10004101C500400148084101C4004001470873
:103F20004101C300400146084101C200450840016B
:103F3000A800410144084001A70041014308400195
:103F4000A600410142084001A50041013808400196
:103F5000AC00410137084001AB0041013608400187
:103F6000AA00410135084001A900AA31B5229D31BE
:103F70000318BB2FBC2FC62F41013808C5003708D6
:103F8000C4003608C3003508C200F62F41013C08C2
:103F90004001A80041013B084001A70041013A0847
:103FA0004001A600410139084001A5004101450832
:103FB0004001AC00410144084001AB00410143080D
:103FC0004001AA00410142084001A900AA31B522DE
:103FD0009D310318EC2FED2FF62F41013C08C50051
:103FE0003B08C4003A08C3003908C2004101450833
:103FF000B0004408AF004308AE004208AD0008001E
:104000004201AA007030AB000030AC002A08410128
:10401000EA000230EB002B30EC000301B0310E203F
:10402000A03108004001B700B51B1728192801303E
:104030001A280030BE003E0803191F282028252812
:10404000B409B509B40A0319B50AF91F28282928A3
:104050002E280130BA000030BB0032287908BB009E
:104060007808BA00460169084001BD0046016808A9
:104070004001BC003E0803193E283F285328FF306A
:10408000BC07FF30BD3D3E08031D472848284D288A
:104090002B30B8000030B90051282D30B800003066
:1040A000B9003808BE004F30BF000030C0004901E1
:1040B000EF019328FF304001BF07FF30C03D3F08AC
:1040C000A03E8600043087000A30F4000030F5007E
:1040D0003508F7003408F600B331CB23A03175085A
:1040E0004001A4007408A300BB31FC23A0314001AF
:1040F0002308303E8100FF30BA07FF30BB3DFF3060
:10410000BC07FF30BD3D0A30F4000030F500350833
:10411000F7003408F600B5318D25A031750840014F
:10412000B5007408B40040014008803AB600803001
:104130003602031D9D2801303F02031CA028A12840
:10414000B528400134083504031DA728A8285A289B
:104150003B08803AB60080303602031DB12801309A
:104160003A020318B428B5285A2840013E0803191A
:10417000BA28BB28C628FF30BF07FF30C03D3F0824
:10418000A03E8600043087003E0881003F08A03E24
:10419000AB003D08AD003C08AC003708B131FF2151
:1041A000A03140012C08B5002B08B40008004701DD
:1041B00044084101A900470143084101A800470103
:1041C00042084101A700470141084101A600400102
:1041D00063084101A900400162084101A8004001B3
:1041E00061084101A700400160084101A6002608BE
:1041F0004001E400410127084001E5004101280891
:104200004001E600410129084001E7001730E73688
:10421000E60CE50CE40C890B0729FF306405E80087
:1042200000306505E9006808813E4101A400FF30C7
:104230004001693D4101A5002508803A4001E400A4
:1042400080306402031D2729173041012402031C1A
:104250002A292B292C29172A4101A51B302931296C
:10426000B729FF304001E400FF30E5007F30E60071
:104270000030E7004101240A40014229E737E60CFB
:10428000E50CE40C890B3E2967084101A3004001BD
:1042900066084101A200400165084101A1004001FA
:1042A00064084101A000260820054001E400410106
:1042B000270821054001E5004101280822054001A9
:1042C000E6004101290823054001E700670866046C
:1042D00065046404031D6D296E296F292B29410192
:1042E00026084001E400410127084001E5004101A2
:1042F00028084001E600410129084001E7001F307D
:10430000E736E60CE50CE40C890B802967086604A7
:104310006504640403198D298E2997294101200819
:10432000A6072108A73D2208A83D2308A93D410171
:1043300020094001E400410121094001E50041015B
:1043400022094001E600410123094001E700640819
:104350004101A605400165084101A7054001660825
:104360004101A805400167084101A905072A26085F
:104370004001E400410127084001E500410128080F
:104380004001E600410129084001E7001F30E736FF
:10439000E60CE50CE40C890BC72967086604650484
:1043A0006404031DD429D529DF2900304101A90067
:1043B0000030A8000030A7000030A600072A410105
:1043C00026084001E400410127084001E5004101C1
:1043D00028084001E600410129084001E7000130BA
:1043E000E435E50DE60DE70D890BF0296708660455
:1043F000650464040319FD29FE29072ABF30410121
:10440000A9008030A8000030A7000030A6004101BC
:1044100029084001E300410128084001E200410170
:1044200027084001E100410126084001E0000800A2
:1044300040014D088039D7004D35DE00CC1F212AC0
:10444000222A232A5E145E080319272A282A382ADA
:104450005E0A031D2C2A2D2A352A0030CD0000309B
:10446000CC000030CB000030CA00CC17CD01402A70
:104470000030CD000030CC000030CB000030CA004E
:1044800049088039CE004E08D7064935DF00C81FDD
:104490004A2A4B2A4C2A5F145F080319502A512AD2
:1044A000612A5F0A031D552A562A5E2A0030C90078
:1044B0000030C8000030C7000030C600C817C9016E
:1044C000692A0030C9000030C8000030C700003041
:1044D000C6004908480447044604031D702A712A8F
:1044E0008A2A0030CD000030CC000030CB000030F4
:1044F000CA008030CC047F30CD045708CE004E086F
:10450000CD044D08C9004C08C8004B08C7004A0834
:10451000C600C12B5E08031D8E2A8F2A982A003000
:10452000C9000030C8000030C7000030C600C12BF1
:104530005E08CE00CF014F08D1005F084E02D000C8
:10454000031CD10350087F3ED8000030513DD900F4
:104550004D08D6004C08D5004B08D4004A08D300BB
:104560000030CD000030CC000030CB000030CA005D
:104570000030DD000030DC000030DB000030DA000D
:10458000DF01002B5F080319C62AC72AE12A013080
:10459000D335D40DD50DD60D890BC82A0130CA35B7
:1045A000CB0DCC0DCD0D890BCF2ADD1FD82AD92AF2
:1045B000DA2A4A140130DA35DB0DDC0DDD0D890B0A
:1045C000DB2A49085602031DEF2A48085502031D3D
:1045D000EF2A47085402031DEF2A46085302031C22
:1045E000F22AF32AFC2A5D174608D3024708D43B77
:1045F0004808D53B4908D63B0130CE004E08DF07BE
:104600001A305F02031C052B062BC22A56085504DC
:104610005404530403190D2B0E2B272B5A14272B4C
:104620000130CA35CB0DCC0DCD0D890B112BDD1F03
:104630001A2B1B2B1C2B4A140130DA35DB0DDC0D39
:10464000DD0D890B1D2BFF30D807FF30D93DCC1F66
:104650002A2B2B2B102BDF01DD1F2F2B302B4C2B6C
:10466000FF305A05CE00FF305B05CF00FF305C0500
:10467000D0007F305D05D100510850044F044E0436
:104680000319432B442B472BDF01DF0A4C2B4A1C19
:104690004A2B4B2B4C2B442B5F080319502B512BCF
:1046A000792B0130CA070030CB3D0030CC3D0030C3
:1046B000CD3D4D1C5C2B5D2B792B4A08CE004B0861
:1046C000CF004C08D0004D08D1000130D200D137C6
:1046D000D00CCF0CCE0CD20B672B5108CD0050085C
:1046E000CC004F08CB004E08CA000130D80700307C
:1046F000D93D5908803ACE0080304E02031D822BEE
:10470000FF305802031C852B862B932BFF30400172
:10471000D8000030D9000030CD000030CC0000308F
:10472000CB000030CA0040015908803ACE008030EA
:104730004E02031D9D2B013058020318A02BA12B04
:10474000AD2B4001D801D9010030CD000030CC00A4
:104750000030CB000030CA00D70140015808DE000D
:104760005E1CB32BB42BB62BCC17BA2B7F30CE00EC
:104770004E08CC055E36CD005708CE004E08CD045D
:10478000812A080040012D088039BA002D35BC006F
:10479000AC1FCB2BCC2BCD2B3C143C080319D12BBD
:1047A000D22BE22B3C0A031DD62BD72BDF2B00305C
:1047B000AD000030AC000030AB000030AA00AC17F8
:1047C000AD01EA2B0030AD000030AC000030AB0092
:1047D0000030AA0031088039BB003B083A060319B3
:1047E000F22BF32BF42B3A173135BB00B01FF92B0A
:1047F000FA2BFB2B3B143B080319FF2B002C102C2E
:104800003B0A031D042C052C0D2C0030B100003098
:10481000B0000030AF000030AE00B017B101182C6E
:104820000030B1000030B0000030AF000030AE000A
:104830003C083B0203181D2C1E2C442C3A1F212C33
:10484000222C262C8030B2003208BA063C08BD006B
:104850003B08BC003D08BB002A08BD002E08AA008A
:104860003D08AE002B08BD002F08AB003D08AF008F
:104870002C08BD003008AC003D08B0002D08BD007C
:104880003108AD003D08B100BD013B08B200B301E5
:104890003308B5003C083202B400031CB5033508E8
:1048A000803AB60080303602031D582C1A3034028C
:1048B000031C5B2C5C2C8E2C40012D082C042B043B
:1048C0002A04031D642C662C0130672C0030BD00C7
:1048D0000030AD000030AC000030AB000030AA006A
:1048E0003B08BC00952C3D1C762C772C7B2C3D3650
:1048F0000138BD007D2C0310BD0C2A1C802C812C9E
:10490000822CBD170130B200AD37AC0CAB0CAA0C39
:10491000B20B842C0130B2003208BC0740013B08C6
:104920003C02031C942C952C732C3A1B982C992C2C
:10493000CF2C3C08031D9D2C9E2CA72C0030AD00D5
:104940000030AC000030AB000030AA00C92D2E08AA
:10495000AA072F08AB3D3008AC3D3108AD3D2D1CFA
:10496000B22CB32C5B2D3D1CB62CB72CBB2C3D368A
:104970000138BD00BD2C0310BD0C2A1CC02CC12C5D
:10498000C22CBD170130B200AD37AC0CAB0CAA0C79
:10499000B20BC42C0130B2003208BC075B2D2D08CD
:1049A000803AB2003108803A3202031DE12C30080F
:1049B0002C02031DE12C2F082B02031DE12C2E08D5
:1049C0002A020318E42CE52C1D2DFF30B200FF3025
:1049D000B300FF30B400FF30B5002A082E02B60045
:1049E0002B082F3BB7002C08303BB8002D08313B7B
:1049F000B9003608B2073708B33D3808B43D390866
:104A0000B53D3508AD003408AC003308AB003208C2
:104A1000AA008030B2003208BA06BD09BD0A3D08BE
:104A2000031D132D142D252D0130AA070030AB3D99
:104A30000030AC3D0030AD3D252D2E08AA022F08D8
:104A4000AB3B3008AC3B3108AD3B2D082C042B04AC
:104A50002A04031D2C2D2D2D572D3D08031D312D0E
:104A6000322D572D0030AD000030AC000030AB00CF
:104A70000030AA00C92D0130AA35AB0DAC0DAD0D2B
:104A8000890B3C2DBD1F452D462D472D2A143D1C5D
:104A90004A2D4B2D4E2D0314BD0D502D0310BD0D71
:104AA0003C080319542D552D572D0130BC02AC1F65
:104AB0005A2D5B2D3B2DBB01BD1F5F2D602D6E2D33
:104AC0003D087F390319652D662D692DBB01BB0A91
:104AD0006E2D2A1C6C2D6D2D6E2D662D3B08031935
:104AE000722D732DA02D0130AA070030AB3D003090
:104AF000AC3D0030AD3D2D1C7E2D7F2DA02D2A0814
:104B0000B2002B08B3002C08B4002D08B50001300A
:104B1000B600B537B40CB30CB20CB60B892D350802
:104B2000AD003408AC003308AB003208AA003C0AE0
:104B300003199B2D9C2DA02D0130B2003208BC071B
:104B40003C0A0319A42DA52DAA2D3C08031DA92D4F
:104B5000AA2DB82D0030AD000030AC000030AB0005
:104B60000030AA003C08031DB62DB72DB82DBA01A0
:104B70003C1CBB2DBC2DBE2DAC17C22D7F30B2000E
:104B80003208AC053C36AD00BA1FC72DC82DC92D63
:104B9000AD170800BC313624A5318B170B178030B8
:104BA000F4003930F500B9319221A531DC308600AE
:104BB0000130870009304201E60000301E00E60B9C
:104BC000DE2D00304001A000F030A100AD30A20089
:104BD000B830A3000830A400A8310020A53100306F
:104BE0004001A000F030A100DC30A2000830A3009A
:104BF000BF317027A5314301E401400114167D0146
:104C00002016BA31A922A531BA310522A5314001B9
:104C1000181529304201E7009630E6007F30890BF5
:104C20000F2EE60B0F2EE70B0F2EB2314322A531CC
:104C3000420120308600013087002C308400033090
:104C400085002F30E60016001A00E60B232E2030D8
:104C50004101E9002C3088310420A5314201EA00ED
:104C60001430BA319A22A53175084201E90074085E
:104C7000E80040304301E8004030E7000030E60043
:104C80000030E50040304401E7002030E60000300D
:104C9000E5000030E40067084001C10044016608F7
:104CA0004001C000440165084001BF0044016408A0
:104CB0004001BE00430168084001C5004301670888
:104CC0004001C400430166084001C3004301650878
:104CD0004001C200BC315524A531400141084301C7
:104CE000EC00400140084301EB0040013F08430154
:104CF000EA0040013E084301E9003F304001E30083
:104D00008330E2001230E1006F30E0004430C9002F
:104D10007F30C800C030C7000030C60042016808BC
:104D2000F4006908F500F601F7010030AD311525F2
:104D3000A53177084001CD007608CC007508CB007E
:104D40007408CA00A2311822A53140014908E700C1
:104D50004808E6004708E5004608E40091313D2197
:104D6000A531400163084401DF00400162084401AD
:104D7000DE00400161084401DD004001600844019B
:104D8000DC003E304001C9008830C8003130C70027
:104D90002730C60044015F084001CD0044015E0891
:104DA0004001CC0044015D084001CB0044015C0897
:104DB0004001CA00A2311822A5314001490844012E
:104DC000E300400148084401E20040014708440173
:104DD000E100400146084401E00042304001E300A8
:104DE000C830E2000030E1000030E00043016C0810
:104DF0004001C90043016B084001C80043016A0833
:104E00004001C700430169084001C600440167082A
:104E10004001C100440166084001C000440165082A
:104E20004001BF00440164084001BE004401630822
:104E30004001C500440162084001C400440161080A
:104E40004001C300440160084001C200BC31552448
:104E5000A53140014108CD004008CC003F08CB00FF
:104E60003E08CA00A2311822A53140014908E700D6
:104E70004808E6004708E5004608E40091313D2176
:104E8000A531400163084401EB0040016208440180
:104E9000EA00400161084401E90040016008440162
:104EA000E80042304001A800C830A7000030A6004A
:104EB0000030A50044016B084001AC0044016A08C1
:104EC0004001AB00440169084001AA0044016808A0
:104ED0004001A900AA31B522A5310318702F712F06
:104EE0007A2F42304401EB00C830EA000030E9007C
:104EF0000030E80044016B084001A80044016A0842
:104F00004001A700440169084001A6004401680867
:104F10004001A5000030AC000030AB000030AA001A
:104F20000030A900AA31B522A5310318982F992F76
:104F3000A22F00304401EB000030EA000030E9000D
:104F40000030E80042016A08803A7F3E031CA92F26
:104F5000AA2FFA2FDC308600023087001030E600DE
:104F600000301E00E60BB12F0430203E86000330D7
:104F70008700403F4501DC00413FDD00423FDE004D
:104F8000433FDF000830203E860003308700403F6B
:104F9000E000413FE100423FE200433FE3004601C1
:104FA00023084501E700460122084501E6004601C5
:104FB00021084501E500460120084501E4004401BF
:104FC0006B084501EB0044016A084501EA00440111
:104FD00069084501E900440168084501E800DC3042
:104FE0004201CA00DC30CB000430CC002030AD31AF
:104FF000C025A531BD314525A531012E8031492877
:105000005530F400AA30F500B9316421A8314001CF
:10501000A7012F28B0310020A831003A031D112824
:1050200012280A28400127082007F4002108031845
:10503000210AF5002308A6002208A5002708250755
:10504000840026080318260A85000008F600BB31F4
:105050007523A83101304001A5002508A7072408C1
:105060002702031C342835280A280800F600760891
:1050700086008701010807394001A0007408023E3C
:10508000A1000030753DA20021088600220887009B
:10509000200881007608023E860087010108A000F2
:1050A0000230A036890B512820080739A100740866
:1050B000860075088700210881007608023E860078
:1050C00087010108A0000530A036890B642820085C
:1050D0000739A1007408013EA2000030753DA3000D
:1050E0002208860023088700210881007608033EF5
:1050F000860087010108A0000230A036890B7D28B8
:1051000020080739A1007408033EA2000030753D55
:10511000A300220886002308870021088100760862
:10512000033E860087010108A0000530A036890BE8
:10513000962820080739A1007408043EA200003018
:10514000753DA300220886002308870021088100FE
:105150000800470148084001AB00470147084001EB
:10516000AA00470146084001A9004701450840013F
:10517000A8007708AB007608AA007508A900740893
:10518000A8002808A0002908A1002A08A2002B08CE
:10519000A3001730A336A20CA10CA00C890BCA28BF
:1051A000FF302005A60000302105A70026082704AF
:1051B000031DDB28DC28FD282808A0002908A10001
:1051C0002A08A2002B08A3000130A035A10DA20DD2
:1051D000A30D890BE5282308220421042004031DC4
:1051E000F228F328F8280230F4000030F5002729CF
:1051F0000330F4000030F5002729260A2704031D98
:105200000229032923292808A0002908A1002A0827
:10521000A2002B08A3000930A035A10DA20DA30DFB
:10522000890B0C29230822042104200403191929BD
:105230001B2901301C290030A400A5012408F4001A
:105240002508F50027290430F4000030F500080097
:10525000803042012D02003003192C02031C312939
:1052600032293D294B304701CB000030CC00FF30C4
:105270004201AA00FF30AB00AA293030BD00013046
:10528000BE002B08C0002A08BF0000302D020230EB
:1052900003192C02031C4D294E2957292C08FF3EC7
:1052A000C800FF302D3DC900C101C2015F29013096
:1052B000C8000030C9000130C1000030C2002F0812
:1052C0004101EB0042012E084101EA003D30EC00B3
:1052D0003F30B0310E20A93141016B084201BC00C2
:1052E00041016A084201BB002C082D0403197929E9
:1052F0007A29A629BC1B7D297E29A6292C08FF3ED8
:10530000B600FF302D3DB7003C08803AB8003708A2
:10531000803A3802031D8E2936083B02031C91296E
:1053200092299A2942012C08FF3EB900FF302D3DF9
:10533000BA009F2942013C08BA003B08B90039086D
:105340002A0786003A082B3D870081013C08AB0004
:105350003B08AA0008004001A701A801A9012908EB
:10536000A200A3012208200786002308213D870010
:105370000108A4002408F40088310020A93142303B
:10538000F5003A30F600BC31DB24A931003A031DA8
:10539000CA29CB29CD299E302E2A4001A501A50A74
:1053A0002708031DD429D529E5292908A200A3012E
:1053B0002208200786002308213D87000D300106C2
:1053C0000319E329E429E529A5012508031DE92995
:1053D000EB290130EC290030A700A601A60A280815
:1053E000031DF329F429042A2908A200A301220895
:1053F000200786002308213D87000A300106031993
:10540000022A032A042AA6012608031D082A0A2ABA
:1054100001300B2A0030A80027080319102A112A8E
:10542000172A28080319152A162A172A212A0130B3
:10543000A2002208A9073C302902031C202A212AA5
:10544000AF2927080319252A262A2B2A2808031DF5
:105450002A2A2B2A2D2A9F302E2A013008004101AA
:10546000E600E50162080319362A372AB12A6308E3
:1054700003193B2A3C2AB12A64080319402A412A0D
:10548000B12A6308043E8600033087000030C03F25
:105490000030C13F0030C23F0030C33F6308860088
:1054A000033087000030C03F0030C13F0030C23FB2
:1054B0000030C33F6308083E860003308700003099
:1054C000C03F0030C13F0030C23F0030C33F6608DC
:1054D000073903196C2A6D2A812A6408AD00620815
:1054E0009D316025AA3141016308043E86000330E6
:1054F00087002D08C03F2E08C13F2F08C23F30084B
:10550000C33F661C842A852A982A6408AD00620875
:105510008031B920AA314101630886000330870039
:105520002D08C03F2E08C13F2F08C23F3008C33F9F
:10553000661D9B2A9C2AB32A6408AD006208943138
:105540000524AA3141016308083E86000330870024
:105550002D08C03F2E08C13F2F08C23F3008C33F6F
:10556000B32AE501E5036508080000304001250580
:10557000AD0000302605AE0080302705AF007F303B
:105580002805B00030082F042E042D04031DC92A5D
:10559000CA2AD22A0030A8000030A7000030A60096
:1055A0000030A50000302905AD0000302A05AE000E
:1055B00080302B05AF007F302C05B00030082F0461
:1055C0002E042D04031DE52AE62AEE2A0030AC0045
:1055D0000030AB000030AA000030A900A81FF12A5B
:1055E000F22A0A2B0030AD000030AE000030AF00D0
:1055F0008030B0002508AD022608AE3B2708AF3B3F
:105600002808B03B3008A8002F08A7002E08A600E5
:105610002D08A500AC1F0D2B0E2B262B0030AD0046
:105620000030AE000030AF008030B0002908AD027D
:105630002A08AE3B2B08AF3B2C08B03B3008AC002F
:105640002F08AB002E08AA002D08A9008030A8065C
:105650008030AC062C082802031D382B2B082702AB
:10566000031D382B2A082602031D382B2908250282
:1056700003183B2B3C2B3E2B03103F2B031408003D
:105680004001A90074080A3EA800290A8400850187
:105690000008F5002908840085012808193E8600C5
:1056A000013087000008C03F7508C13F28081B3E35
:1056B0008600013087002908023E84008501000829
:1056C00081002908033E860087010108F500F601E4
:1056D000F51BF603F50EF60EF030F60575080F39DA
:1056E000F604F030F5057508A2007608A300290835
:1056F000043E8600870101080F39F500F6017508A0
:10570000A0007608A10020082204F5002108230447
:10571000F60028081C3E8600013087007508C03F4F
:105720007608C13F2908053E860087010108F5007B
:10573000F601F51BF603F50EF60EF030F6057508CA
:105740000F39F604F030F5057508A6007608A700B5
:105750002908043E860087010108F5000430F5366B
:10576000890BAF2B7508F600F7017608A4007708BF
:10577000A50024082604F50025082704F6002808BB
:105780001E3E8600013087007508C03F7608C13F85
:105790002808203E8600013087002908063E840044
:1057A00085010008810008000030F5001030F60087
:1057B000BC31DB24AB31003A031DDF2BE02BE22BA5
:1057C0009E30712C4001E001E10121308600003063
:1057D00087003C30A00000301E00A00BEC2BE20143
:1057E000BD31DF25AB314001E300DE01DE0A600898
:1057F000031DFB2BFC2B032C0D3063060319012C1E
:10580000022C032CDE015E08031D072C092C01303D
:105810000A2C0030E000DF01DF0A6108031D112CB3
:10582000122C192C0A3063060319172C182C192C6A
:10583000DF015F08031D1D2C1F2C0130202C0030C0
:10584000E1000D3063060319262C272C332C0A3077
:10585000630603192C2C2D2C332C6208213E860064
:1058600087016308810060080319372C382C3E2C0F
:10587000610803193C2C3D2C3E2C562C0030F500C1
:105880001030F600BC31DB24AB31003A031D492C4B
:105890004A2C4B2CE02B01304001A0002008E207ED
:1058A0003C306202031C552C562CF02BC730F40000
:1058B000B830F5002130F600BE31E326AB31740874
:1058C00075040319642C662C0130672C00304001EC
:1058D000DD005D0803196D2C6E2C702C0130712CCD
:1058E0009D3008004001B400DB30860003308700A3
:1058F00029308400003085000730A70016001A0008
:10590000A70B7E2C2608B6002508B50035083604FE
:10591000031D8B2C8C2C902C2930B5000030B60048
:105920003608F5003508F400BB314223AC31750868
:105930004001BA007408B9007908B8007808B700C7
:10594000B81BA32CA42CB82C3808803AA7003A081E
:10595000803A2702031DAE2C39083702031CB12CF4
:10596000B22CB32CB82C40013808BA003708B90063
:1059700040013A08B8003908B700460169084001FB
:10598000B100460168084001B000D52C2030F40079
:105990000030F50040013408F600B431D324AC31B6
:1059A00001304001B9070030BA3D3A08803AA700FB
:1059B0003108803A2702031DDF2C30083902031C0E
:1059C000E22CE32CC62C4001B201B301012D4001B1
:1059D00035088600360887000108A700A8012708B7
:1059E000F4002808F5003408F600B431D324AC31B3
:1059F00001304001B5070030B63D0130B20700303C
:105A0000B33D3308803AA7003808803A2702031DC7
:105A10000B2D37083202031C0E2D0F2DE72C4001F1
:105A20003A08A6003908A50008004001A40024088F
:105A300003191B2D1C2D302DF71F1F2D202D302D50
:105A40007409A6007509A7007609A8007709A900BE
:105A5000A60A0319A70A0319A80A0319A90A382DC7
:105A60007708A9007608A8007508A7007408A600A2
:105A70007708760475047404031D3F2D402D492DCD
:105A80000030F7000030F6000030F5000030F40080
:105A9000BF2D9630A500572D0130A0002008A50786
:105AA0000130A936A80CA70CA60C890B512DFE308D
:105AB0002905031D5C2D5D2D4C2D712D0130A0009D
:105AC0002008A5070130A6070030A73D0030A83DFB
:105AD0000030A93D0130A936A80CA70CA60C890BF3
