:04000000803114280F
:100008007E1480314101161E0A280B2812280C1E66
:100018000E280F2812288131D42180317E10090042
:10002800803116286D30840081308500303086009C
:10003800003087000E308131B3218031F701F8019B
:10004800F901FA01FB01FC01BE01BF017E1040016C
:1000580080312E2881317B2180318131D02180313E
:100068008131CA2180318131CD2180313030860003
:100078000030870020308400003085000E30F50005
:1000880016001A00F50B44288131102180314001F7
:10009800AF0048302F06031D52285328542819143E
:1000A8004C302F06031D59285A285B281910523046
:1000B8002F06031D602861284828AE017E282E08D7
:1000C800203E860087010108F0008131BE21803181
:1000D80071285330890B6E2800008131C621803188
:1000E800003A0319782879286D280130F500750839
:1000F8004001AE07203081315621803140012E0861
:10010800F500F60171087602031D8C287008750247
:10011800031C8F2890286328482880311428400120
:10012800980199019A019B019C01FF309200FE30D1
:100138009300BF309400FF3095000F309600FF30D9
:100148007D018C00FE3096003F30A000FF30AA00F1
:100158000730B4008D019701A101AB01B5018E01F3
:100168009801A201AC01B601FF308F00FF30990061
:10017800FF30A300FF30AD000730B700FF3090001C
:10018800FF309A00FF30A400FF30AE000F30B800F7
:1001980017307C01C1000E307B01A2007D01910166
:1001A800920193019B019C019D01A501A601A70154
:1001B800B901BA01BB0108003A34013400340034F3
:1001C80010340134BE3401340034003400340034B7
:1001D800C6340134CA3401340034003400340034E5
:1001E8000034003400340034003400340034003467
:1001F8000034003400340034003400340034003457
:1002080000340034003400349E3401349334013413
:1002180000340034003400344001BE01BF014C01F9
:10022800901C17291829252940013E1577087804BC
:1002380003191F292029252978088A0077080A0028
:1002480081314C01101D29292A2937294001BE1462
:1002580079087A0403193129322937297A088A005A
:1002680079080A0081314C010C08080048304C011B
:100278009200903090002630910019308E008F0146
:10028800D330F0000130F10081319E218131C2303C
:10029800F0000130F1008131932181314001BE012C
:1002A800BF010800F4007408F3005E290130F20071
:1002B8007208F4077408860087010108031D652980
:1002C80066295A2973087402F000F101F01BF10342
:1002D8000800483465346C346C346F342034573437
:1002E8006F3472346C3464340D340A340034813120
:1002F800A921813180319320813181313A218131A5
:10030800813188218131080041010C100B14003023
:10031800F0000030F1008131B92181310800700806
:1003280071040319982999299D297108F800700802
:10033800F7000800700871040319A329A429A82943
:100348007108FA007008F9000800603044018E0056
:100358008F01910193019001920194010800FE0020
:1003680012001E00FE0BB42900347108FC0070084E
:10037800FB00080070084C018D0008004C011012A9
:10038800101608004C01110C013908004C01911697
:1003980008004C01101608004C01901708000800CE
:0203A80008004B
:020000040001F9
:04000E00ED3FE73F9C
:04001400FF3FFF3F6C
:00000001FF
